{
  "contractName": "DLTSCBTokenV2",
  "abi": [
    {
      "inputs": [],
      "stateMutability": "nonpayable",
      "type": "constructor"
    },
    {
      "anonymous": false,
      "inputs": [
        {
          "indexed": false,
          "internalType": "address",
          "name": "previousAdmin",
          "type": "address"
        },
        {
          "indexed": false,
          "internalType": "address",
          "name": "newAdmin",
          "type": "address"
        }
      ],
      "name": "AdminChanged",
      "type": "event"
    },
    {
      "anonymous": false,
      "inputs": [
        {
          "indexed": true,
          "internalType": "address",
          "name": "owner",
          "type": "address"
        },
        {
          "indexed": true,
          "internalType": "address",
          "name": "spender",
          "type": "address"
        },
        {
          "indexed": false,
          "internalType": "uint256",
          "name": "value",
          "type": "uint256"
        }
      ],
      "name": "Approval",
      "type": "event"
    },
    {
      "anonymous": false,
      "inputs": [
        {
          "indexed": true,
          "internalType": "address",
          "name": "beacon",
          "type": "address"
        }
      ],
      "name": "BeaconUpgraded",
      "type": "event"
    },
    {
      "anonymous": false,
      "inputs": [
        {
          "indexed": true,
          "internalType": "bytes32",
          "name": "role",
          "type": "bytes32"
        },
        {
          "indexed": true,
          "internalType": "bytes32",
          "name": "previousAdminRole",
          "type": "bytes32"
        },
        {
          "indexed": true,
          "internalType": "bytes32",
          "name": "newAdminRole",
          "type": "bytes32"
        }
      ],
      "name": "RoleAdminChanged",
      "type": "event"
    },
    {
      "anonymous": false,
      "inputs": [
        {
          "indexed": true,
          "internalType": "bytes32",
          "name": "role",
          "type": "bytes32"
        },
        {
          "indexed": true,
          "internalType": "address",
          "name": "account",
          "type": "address"
        },
        {
          "indexed": true,
          "internalType": "address",
          "name": "sender",
          "type": "address"
        }
      ],
      "name": "RoleGranted",
      "type": "event"
    },
    {
      "anonymous": false,
      "inputs": [
        {
          "indexed": true,
          "internalType": "bytes32",
          "name": "role",
          "type": "bytes32"
        },
        {
          "indexed": true,
          "internalType": "address",
          "name": "account",
          "type": "address"
        },
        {
          "indexed": true,
          "internalType": "address",
          "name": "sender",
          "type": "address"
        }
      ],
      "name": "RoleRevoked",
      "type": "event"
    },
    {
      "anonymous": false,
      "inputs": [
        {
          "indexed": true,
          "internalType": "address",
          "name": "from",
          "type": "address"
        },
        {
          "indexed": true,
          "internalType": "address",
          "name": "to",
          "type": "address"
        },
        {
          "indexed": false,
          "internalType": "uint256",
          "name": "value",
          "type": "uint256"
        }
      ],
      "name": "Transfer",
      "type": "event"
    },
    {
      "anonymous": false,
      "inputs": [
        {
          "indexed": true,
          "internalType": "address",
          "name": "implementation",
          "type": "address"
        }
      ],
      "name": "Upgraded",
      "type": "event"
    },
    {
      "inputs": [],
      "name": "DEFAULT_ADMIN_ROLE",
      "outputs": [
        {
          "internalType": "bytes32",
          "name": "",
          "type": "bytes32"
        }
      ],
      "stateMutability": "view",
      "type": "function"
    },
    {
      "inputs": [],
      "name": "MINTER_ROLE",
      "outputs": [
        {
          "internalType": "bytes32",
          "name": "",
          "type": "bytes32"
        }
      ],
      "stateMutability": "view",
      "type": "function"
    },
    {
      "inputs": [],
      "name": "UPGRADER_ROLE",
      "outputs": [
        {
          "internalType": "bytes32",
          "name": "",
          "type": "bytes32"
        }
      ],
      "stateMutability": "view",
      "type": "function"
    },
    {
      "inputs": [],
      "name": "USER_ROLE",
      "outputs": [
        {
          "internalType": "bytes32",
          "name": "",
          "type": "bytes32"
        }
      ],
      "stateMutability": "view",
      "type": "function"
    },
    {
      "inputs": [
        {
          "internalType": "address",
          "name": "owner",
          "type": "address"
        },
        {
          "internalType": "address",
          "name": "spender",
          "type": "address"
        }
      ],
      "name": "allowance",
      "outputs": [
        {
          "internalType": "uint256",
          "name": "",
          "type": "uint256"
        }
      ],
      "stateMutability": "view",
      "type": "function"
    },
    {
      "inputs": [
        {
          "internalType": "address",
          "name": "spender",
          "type": "address"
        },
        {
          "internalType": "uint256",
          "name": "amount",
          "type": "uint256"
        }
      ],
      "name": "approve",
      "outputs": [
        {
          "internalType": "bool",
          "name": "",
          "type": "bool"
        }
      ],
      "stateMutability": "nonpayable",
      "type": "function"
    },
    {
      "inputs": [
        {
          "internalType": "address",
          "name": "account",
          "type": "address"
        }
      ],
      "name": "balanceOf",
      "outputs": [
        {
          "internalType": "uint256",
          "name": "",
          "type": "uint256"
        }
      ],
      "stateMutability": "view",
      "type": "function"
    },
    {
      "inputs": [
        {
          "internalType": "uint256",
          "name": "amount",
          "type": "uint256"
        }
      ],
      "name": "burn",
      "outputs": [],
      "stateMutability": "nonpayable",
      "type": "function"
    },
    {
      "inputs": [
        {
          "internalType": "address",
          "name": "account",
          "type": "address"
        },
        {
          "internalType": "uint256",
          "name": "amount",
          "type": "uint256"
        }
      ],
      "name": "burnFrom",
      "outputs": [],
      "stateMutability": "nonpayable",
      "type": "function"
    },
    {
      "inputs": [],
      "name": "count",
      "outputs": [
        {
          "internalType": "uint256",
          "name": "",
          "type": "uint256"
        }
      ],
      "stateMutability": "view",
      "type": "function"
    },
    {
      "inputs": [],
      "name": "decimals",
      "outputs": [
        {
          "internalType": "uint8",
          "name": "",
          "type": "uint8"
        }
      ],
      "stateMutability": "view",
      "type": "function"
    },
    {
      "inputs": [
        {
          "internalType": "address",
          "name": "spender",
          "type": "address"
        },
        {
          "internalType": "uint256",
          "name": "subtractedValue",
          "type": "uint256"
        }
      ],
      "name": "decreaseAllowance",
      "outputs": [
        {
          "internalType": "bool",
          "name": "",
          "type": "bool"
        }
      ],
      "stateMutability": "nonpayable",
      "type": "function"
    },
    {
      "inputs": [
        {
          "internalType": "bytes32",
          "name": "role",
          "type": "bytes32"
        }
      ],
      "name": "getRoleAdmin",
      "outputs": [
        {
          "internalType": "bytes32",
          "name": "",
          "type": "bytes32"
        }
      ],
      "stateMutability": "view",
      "type": "function"
    },
    {
      "inputs": [
        {
          "internalType": "bytes32",
          "name": "role",
          "type": "bytes32"
        },
        {
          "internalType": "address",
          "name": "account",
          "type": "address"
        }
      ],
      "name": "grantRole",
      "outputs": [],
      "stateMutability": "nonpayable",
      "type": "function"
    },
    {
      "inputs": [
        {
          "internalType": "bytes32",
          "name": "role",
          "type": "bytes32"
        },
        {
          "internalType": "address",
          "name": "account",
          "type": "address"
        }
      ],
      "name": "hasRole",
      "outputs": [
        {
          "internalType": "bool",
          "name": "",
          "type": "bool"
        }
      ],
      "stateMutability": "view",
      "type": "function"
    },
    {
      "inputs": [
        {
          "internalType": "address",
          "name": "spender",
          "type": "address"
        },
        {
          "internalType": "uint256",
          "name": "addedValue",
          "type": "uint256"
        }
      ],
      "name": "increaseAllowance",
      "outputs": [
        {
          "internalType": "bool",
          "name": "",
          "type": "bool"
        }
      ],
      "stateMutability": "nonpayable",
      "type": "function"
    },
    {
      "inputs": [],
      "name": "name",
      "outputs": [
        {
          "internalType": "string",
          "name": "",
          "type": "string"
        }
      ],
      "stateMutability": "view",
      "type": "function"
    },
    {
      "inputs": [],
      "name": "proxiableUUID",
      "outputs": [
        {
          "internalType": "bytes32",
          "name": "",
          "type": "bytes32"
        }
      ],
      "stateMutability": "view",
      "type": "function"
    },
    {
      "inputs": [
        {
          "internalType": "bytes32",
          "name": "role",
          "type": "bytes32"
        },
        {
          "internalType": "address",
          "name": "account",
          "type": "address"
        }
      ],
      "name": "renounceRole",
      "outputs": [],
      "stateMutability": "nonpayable",
      "type": "function"
    },
    {
      "inputs": [
        {
          "internalType": "bytes32",
          "name": "role",
          "type": "bytes32"
        },
        {
          "internalType": "address",
          "name": "account",
          "type": "address"
        }
      ],
      "name": "revokeRole",
      "outputs": [],
      "stateMutability": "nonpayable",
      "type": "function"
    },
    {
      "inputs": [],
      "name": "setMessage",
      "outputs": [
        {
          "internalType": "string",
          "name": "",
          "type": "string"
        }
      ],
      "stateMutability": "view",
      "type": "function"
    },
    {
      "inputs": [
        {
          "internalType": "bytes4",
          "name": "interfaceId",
          "type": "bytes4"
        }
      ],
      "name": "supportsInterface",
      "outputs": [
        {
          "internalType": "bool",
          "name": "",
          "type": "bool"
        }
      ],
      "stateMutability": "view",
      "type": "function"
    },
    {
      "inputs": [],
      "name": "symbol",
      "outputs": [
        {
          "internalType": "string",
          "name": "",
          "type": "string"
        }
      ],
      "stateMutability": "view",
      "type": "function"
    },
    {
      "inputs": [],
      "name": "totalSupply",
      "outputs": [
        {
          "internalType": "uint256",
          "name": "",
          "type": "uint256"
        }
      ],
      "stateMutability": "view",
      "type": "function"
    },
    {
      "inputs": [
        {
          "internalType": "address",
          "name": "to",
          "type": "address"
        },
        {
          "internalType": "uint256",
          "name": "amount",
          "type": "uint256"
        }
      ],
      "name": "transfer",
      "outputs": [
        {
          "internalType": "bool",
          "name": "",
          "type": "bool"
        }
      ],
      "stateMutability": "nonpayable",
      "type": "function"
    },
    {
      "inputs": [
        {
          "internalType": "address",
          "name": "from",
          "type": "address"
        },
        {
          "internalType": "address",
          "name": "to",
          "type": "address"
        },
        {
          "internalType": "uint256",
          "name": "amount",
          "type": "uint256"
        }
      ],
      "name": "transferFrom",
      "outputs": [
        {
          "internalType": "bool",
          "name": "",
          "type": "bool"
        }
      ],
      "stateMutability": "nonpayable",
      "type": "function"
    },
    {
      "inputs": [
        {
          "internalType": "address",
          "name": "newImplementation",
          "type": "address"
        }
      ],
      "name": "upgradeTo",
      "outputs": [],
      "stateMutability": "nonpayable",
      "type": "function"
    },
    {
      "inputs": [
        {
          "internalType": "address",
          "name": "newImplementation",
          "type": "address"
        },
        {
          "internalType": "bytes",
          "name": "data",
          "type": "bytes"
        }
      ],
      "name": "upgradeToAndCall",
      "outputs": [],
      "stateMutability": "payable",
      "type": "function"
    },
    {
      "inputs": [],
      "name": "initialize",
      "outputs": [],
      "stateMutability": "nonpayable",
      "type": "function"
    },
    {
      "inputs": [],
      "name": "increment",
      "outputs": [],
      "stateMutability": "nonpayable",
      "type": "function"
    },
    {
      "inputs": [
        {
          "internalType": "string",
          "name": "_setText",
          "type": "string"
        }
      ],
      "name": "setText",
      "outputs": [],
      "stateMutability": "nonpayable",
      "type": "function"
    },
    {
      "inputs": [],
      "name": "getCount",
      "outputs": [
        {
          "internalType": "uint256",
          "name": "",
          "type": "uint256"
        }
      ],
      "stateMutability": "view",
      "type": "function"
    },
    {
      "inputs": [],
      "name": "decrement",
      "outputs": [],
      "stateMutability": "nonpayable",
      "type": "function"
    },
    {
      "inputs": [],
      "name": "getText",
      "outputs": [
        {
          "internalType": "string",
          "name": "",
          "type": "string"
        }
      ],
      "stateMutability": "view",
      "type": "function"
    },
    {
      "inputs": [
        {
          "internalType": "address",
          "name": "to",
          "type": "address"
        },
        {
          "internalType": "uint256",
          "name": "amount",
          "type": "uint256"
        }
      ],
      "name": "mint",
      "outputs": [],
      "stateMutability": "nonpayable",
      "type": "function"
    },
    {
      "inputs": [
        {
          "internalType": "address",
          "name": "account",
          "type": "address"
        }
      ],
      "name": "addUserToAdminRole",
      "outputs": [],
      "stateMutability": "nonpayable",
      "type": "function"
    },
    {
      "inputs": [
        {
          "internalType": "address",
          "name": "account",
          "type": "address"
        }
      ],
      "name": "addUserRole",
      "outputs": [],
      "stateMutability": "nonpayable",
      "type": "function"
    },
    {
      "inputs": [
        {
          "internalType": "address",
          "name": "account",
          "type": "address"
        }
      ],
      "name": "isUserRole",
      "outputs": [
        {
          "internalType": "bool",
          "name": "",
          "type": "bool"
        }
      ],
      "stateMutability": "view",
      "type": "function"
    },
    {
      "inputs": [
        {
          "internalType": "address",
          "name": "account",
          "type": "address"
        }
      ],
      "name": "addMinterRole",
      "outputs": [],
      "stateMutability": "nonpayable",
      "type": "function"
    },
    {
      "inputs": [
        {
          "internalType": "address",
          "name": "account",
          "type": "address"
        }
      ],
      "name": "isMinterRole",
      "outputs": [
        {
          "internalType": "bool",
          "name": "",
          "type": "bool"
        }
      ],
      "stateMutability": "view",
      "type": "function"
    },
    {
      "inputs": [
        {
          "internalType": "address",
          "name": "_account",
          "type": "address"
        }
      ],
      "name": "revokeUserRole",
      "outputs": [],
      "stateMutability": "nonpayable",
      "type": "function"
    }
  ],
  "bytecode": "0x60a06040523073ffffffffffffffffffffffffffffffffffffffff1660809073ffffffffffffffffffffffffffffffffffffffff168152503480156200004457600080fd5b50600060019054906101000a900460ff166200006f5760008054906101000a900460ff161562000080565b6200007f6200013c60201b60201c565b5b620000c2576040517f08c379a0000000000000000000000000000000000000000000000000000000008152600401620000b99062000204565b60405180910390fd5b60008060019054906101000a900460ff16159050801562000113576001600060016101000a81548160ff02191690831515021790555060016000806101000a81548160ff0219169083151502179055505b8015620001355760008060016101000a81548160ff0219169083151502179055505b5062000226565b600062000154306200015a60201b620019e21760201c565b15905090565b6000808273ffffffffffffffffffffffffffffffffffffffff163b119050919050565b600082825260208201905092915050565b7f496e697469616c697a61626c653a20636f6e747261637420697320616c72656160008201527f647920696e697469616c697a6564000000000000000000000000000000000000602082015250565b6000620001ec602e836200017d565b9150620001f9826200018e565b604082019050919050565b600060208201905081810360008301526200021f81620001dd565b9050919050565b60805161460f6200025e60003960008181610c5b01528181610ce901528181610f1501528181610fa30152611053015261460f6000f3fe6080604052600436106102465760003560e01c80635d3a1f9d11610139578063a9059cbb116100b6578063d547741f1161007a578063d547741f1461087f578063dd62ed3e146108a8578063e00fe2eb146108e5578063e46962f114610910578063e90847f41461094d578063f72c0d8b1461097857610246565b8063a9059cbb146107ae578063adbf3776146107eb578063bd73b25d14610814578063d09de08a1461083d578063d53913931461085457610246565b806395d89b41116100fd57806395d89b41146106c75780639dcaf0c8146106f2578063a217fddf1461071b578063a457c2d714610746578063a87d942c1461078357610246565b80635d3a1f9d146105e457806370a082311461060d57806379cc67901461064a5780638129fc1c1461067357806391d148541461068a57610246565b8063313ce567116101c757806340c10f191161018b57806340c10f191461052257806342966c681461054b5780634f1ef2861461057457806352d1902d1461059057806356cf15ad146105bb57610246565b8063313ce5671461042b57806336568abe146104565780633659cfe61461047f57806339509351146104a85780634004c7a2146104e557610246565b806318160ddd1161020e57806318160ddd1461034657806323b872dd14610371578063248a9ca3146103ae5780632baeceb7146103eb5780632f2ff15d1461040257610246565b806301ffc9a71461024b57806306661abd1461028857806306fdde03146102b3578063095ea7b3146102de578063131191611461031b575b600080fd5b34801561025757600080fd5b50610272600480360381019061026d9190612eab565b6109a3565b60405161027f9190612ef3565b60405180910390f35b34801561029457600080fd5b5061029d610a1d565b6040516102aa9190612f27565b60405180910390f35b3480156102bf57600080fd5b506102c8610a24565b6040516102d59190612fdb565b60405180910390f35b3480156102ea57600080fd5b5061030560048036038101906103009190613087565b610ab6565b6040516103129190612ef3565b60405180910390f35b34801561032757600080fd5b50610330610ad9565b60405161033d91906130e0565b60405180910390f35b34801561035257600080fd5b5061035b610afd565b6040516103689190612f27565b60405180910390f35b34801561037d57600080fd5b50610398600480360381019061039391906130fb565b610b07565b6040516103a59190612ef3565b60405180910390f35b3480156103ba57600080fd5b506103d560048036038101906103d0919061317a565b610b36565b6040516103e291906130e0565b60405180910390f35b3480156103f757600080fd5b50610400610b56565b005b34801561040e57600080fd5b50610429600480360381019061042491906131a7565b610ba4565b005b34801561043757600080fd5b50610440610bcd565b60405161044d9190613203565b60405180910390f35b34801561046257600080fd5b5061047d600480360381019061047891906131a7565b610bd6565b005b34801561048b57600080fd5b506104a660048036038101906104a1919061321e565b610c59565b005b3480156104b457600080fd5b506104cf60048036038101906104ca9190613087565b610de1565b6040516104dc9190612ef3565b60405180910390f35b3480156104f157600080fd5b5061050c6004803603810190610507919061321e565b610e8b565b6040516105199190612ef3565b60405180910390f35b34801561052e57600080fd5b5061054960048036038101906105449190613087565b610ebe565b005b34801561055757600080fd5b50610572600480360381019061056d919061324b565b610eff565b005b61058e600480360381019061058991906133ad565b610f13565b005b34801561059c57600080fd5b506105a561104f565b6040516105b291906130e0565b60405180910390f35b3480156105c757600080fd5b506105e260048036038101906105dd919061321e565b611108565b005b3480156105f057600080fd5b5061060b600480360381019061060691906134aa565b61114b565b005b34801561061957600080fd5b50610634600480360381019061062f919061321e565b611166565b6040516106419190612f27565b60405180910390f35b34801561065657600080fd5b50610671600480360381019061066c9190613087565b6111af565b005b34801561067f57600080fd5b506106886111cf565b005b34801561069657600080fd5b506106b160048036038101906106ac91906131a7565b61144a565b6040516106be9190612ef3565b60405180910390f35b3480156106d357600080fd5b506106dc6114b5565b6040516106e99190612fdb565b60405180910390f35b3480156106fe57600080fd5b506107196004803603810190610714919061321e565b611547565b005b34801561072757600080fd5b5061073061156d565b60405161073d91906130e0565b60405180910390f35b34801561075257600080fd5b5061076d60048036038101906107689190613087565b611574565b60405161077a9190612ef3565b60405180910390f35b34801561078f57600080fd5b5061079861165e565b6040516107a59190612f27565b60405180910390f35b3480156107ba57600080fd5b506107d560048036038101906107d09190613087565b61169c565b6040516107e29190612ef3565b60405180910390f35b3480156107f757600080fd5b50610812600480360381019061080d919061321e565b6116bf565b005b34801561082057600080fd5b5061083b6004803603810190610836919061321e565b611702565b005b34801561084957600080fd5b50610852611745565b005b34801561086057600080fd5b50610869611795565b60405161087691906130e0565b60405180910390f35b34801561088b57600080fd5b506108a660048036038101906108a191906131a7565b6117b9565b005b3480156108b457600080fd5b506108cf60048036038101906108ca91906134f3565b6117e2565b6040516108dc9190612f27565b60405180910390f35b3480156108f157600080fd5b506108fa611869565b6040516109079190612fdb565b60405180910390f35b34801561091c57600080fd5b506109376004803603810190610932919061321e565b6118fc565b6040516109449190612ef3565b60405180910390f35b34801561095957600080fd5b5061096261192f565b60405161096f9190612fdb565b60405180910390f35b34801561098457600080fd5b5061098d6119be565b60405161099a91906130e0565b60405180910390f35b60007f7965db0b000000000000000000000000000000000000000000000000000000007bffffffffffffffffffffffffffffffffffffffffffffffffffffffff1916827bffffffffffffffffffffffffffffffffffffffffffffffffffffffff19161480610a165750610a1582611a05565b5b9050919050565b61015f5481565b606060368054610a3390613562565b80601f0160208091040260200160405190810160405280929190818152602001828054610a5f90613562565b8015610aac5780601f10610a8157610100808354040283529160200191610aac565b820191906000526020600020905b815481529060010190602001808311610a8f57829003601f168201915b5050505050905090565b600080610ac1611a6f565b9050610ace818585611a77565b600191505092915050565b7f14823911f2da1b49f045a0929a60b8c1f2a7fc8c06c7284ca3e8ab4e193a08c881565b6000603554905090565b600080610b12611a6f565b9050610b1f858285611c40565b610b2a858585611ccc565b60019150509392505050565b600060c96000838152602001908152602001600020600101549050919050565b7f14823911f2da1b49f045a0929a60b8c1f2a7fc8c06c7284ca3e8ab4e193a08c8610b8881610b83611a6f565b611f4e565b61015f6000815480929190610b9c906135c2565b919050555050565b610bad82610b36565b610bbe81610bb9611a6f565b611f4e565b610bc88383611feb565b505050565b60006012905090565b610bde611a6f565b73ffffffffffffffffffffffffffffffffffffffff168173ffffffffffffffffffffffffffffffffffffffff1614610c4b576040517f08c379a0000000000000000000000000000000000000000000000000000000008152600401610c429061365d565b60405180910390fd5b610c5582826120cc565b5050565b7f000000000000000000000000000000000000000000000000000000000000000073ffffffffffffffffffffffffffffffffffffffff163073ffffffffffffffffffffffffffffffffffffffff1603610ce7576040517f08c379a0000000000000000000000000000000000000000000000000000000008152600401610cde906136ef565b60405180910390fd5b7f000000000000000000000000000000000000000000000000000000000000000073ffffffffffffffffffffffffffffffffffffffff16610d266121ae565b73ffffffffffffffffffffffffffffffffffffffff1614610d7c576040517f08c379a0000000000000000000000000000000000000000000000000000000008152600401610d7390613781565b60405180910390fd5b610d8581612205565b610dde81600067ffffffffffffffff811115610da457610da3613282565b5b6040519080825280601f01601f191660200182016040528015610dd65781602001600182028036833780820191505090505b50600061223b565b50565b600080610dec611a6f565b9050610e80818585603460008673ffffffffffffffffffffffffffffffffffffffff1673ffffffffffffffffffffffffffffffffffffffff16815260200190815260200160002060008973ffffffffffffffffffffffffffffffffffffffff1673ffffffffffffffffffffffffffffffffffffffff16815260200190815260200160002054610e7b91906137a1565b611a77565b600191505092915050565b6000610eb77f9f2df0fed2c77648de5860a4cc508cd0818c85b8b8a1ab4ceeef8d981c8956a68361144a565b9050919050565b7f9f2df0fed2c77648de5860a4cc508cd0818c85b8b8a1ab4ceeef8d981c8956a6610ef081610eeb611a6f565b611f4e565b610efa83836123a9565b505050565b610f10610f0a611a6f565b82612509565b50565b7f000000000000000000000000000000000000000000000000000000000000000073ffffffffffffffffffffffffffffffffffffffff163073ffffffffffffffffffffffffffffffffffffffff1603610fa1576040517f08c379a0000000000000000000000000000000000000000000000000000000008152600401610f98906136ef565b60405180910390fd5b7f000000000000000000000000000000000000000000000000000000000000000073ffffffffffffffffffffffffffffffffffffffff16610fe06121ae565b73ffffffffffffffffffffffffffffffffffffffff1614611036576040517f08c379a000000000000000000000000000000000000000000000000000000000815260040161102d90613781565b60405180910390fd5b61103f82612205565b61104b8282600161223b565b5050565b60007f000000000000000000000000000000000000000000000000000000000000000073ffffffffffffffffffffffffffffffffffffffff163073ffffffffffffffffffffffffffffffffffffffff16146110df576040517f08c379a00000000000000000000000000000000000000000000000000000000081526004016110d690613869565b60405180910390fd5b7f360894a13ba1a3210667c828492db98dca3e2076cc3735a920a3ca505d382bbc60001b905090565b6000801b61111d81611118611a6f565b611f4e565b6111477f14823911f2da1b49f045a0929a60b8c1f2a7fc8c06c7284ca3e8ab4e193a08c883610ba4565b5050565b806101609080519060200190611162929190612d9c565b5050565b6000603360008373ffffffffffffffffffffffffffffffffffffffff1673ffffffffffffffffffffffffffffffffffffffff168152602001908152602001600020549050919050565b6111c1826111bb611a6f565b83611c40565b6111cb8282612509565b5050565b600060019054906101000a900460ff166111f75760008054906101000a900460ff1615611200565b6111ff6126e1565b5b61123f576040517f08c379a0000000000000000000000000000000000000000000000000000000008152600401611236906138fb565b60405180910390fd5b60008060019054906101000a900460ff16159050801561128f576001600060016101000a81548160ff02191690831515021790555060016000806101000a81548160ff0219169083151502179055505b6113036040518060400160405280600b81526020017f444c54534342546f6b656e0000000000000000000000000000000000000000008152506040518060400160405280600381526020017f53434200000000000000000000000000000000000000000000000000000000008152506126f2565b61130b61274f565b6113136127a0565b61131b6127f1565b61134533611327610bcd565b600a6113339190613a4e565b6103e86113409190613a99565b6123a9565b6113526000801b33611feb565b61137c7f9f2df0fed2c77648de5860a4cc508cd0818c85b8b8a1ab4ceeef8d981c8956a633611feb565b6113a67f189ab7a9244df0848122154315af71fe140f3db0fe014031783b0946b8c9d2e333611feb565b6113d07f14823911f2da1b49f045a0929a60b8c1f2a7fc8c06c7284ca3e8ab4e193a08c833611feb565b600061015f819055506040518060400160405280600c81526020017f56312d5265706f7274696e6700000000000000000000000000000000000000008152506101609080519060200190611425929190612d9c565b5080156114475760008060016101000a81548160ff0219169083151502179055505b50565b600060c9600084815260200190815260200160002060000160008373ffffffffffffffffffffffffffffffffffffffff1673ffffffffffffffffffffffffffffffffffffffff16815260200190815260200160002060009054906101000a900460ff16905092915050565b6060603780546114c490613562565b80601f01602080910402602001604051908101604052809291908181526020018280546114f090613562565b801561153d5780601f106115125761010080835404028352916020019161153d565b820191906000526020600020905b81548152906001019060200180831161152057829003601f168201915b5050505050905090565b6000801b61155c81611557611a6f565b611f4e565b6115696000801b83610ba4565b5050565b6000801b81565b60008061157f611a6f565b90506000603460008373ffffffffffffffffffffffffffffffffffffffff1673ffffffffffffffffffffffffffffffffffffffff16815260200190815260200160002060008673ffffffffffffffffffffffffffffffffffffffff1673ffffffffffffffffffffffffffffffffffffffff16815260200190815260200160002054905083811015611645576040517f08c379a000000000000000000000000000000000000000000000000000000000815260040161163c90613b65565b60405180910390fd5b6116528286868403611a77565b60019250505092915050565b60007f14823911f2da1b49f045a0929a60b8c1f2a7fc8c06c7284ca3e8ab4e193a08c86116928161168d611a6f565b611f4e565b61015f5491505090565b6000806116a7611a6f565b90506116b4818585611ccc565b600191505092915050565b6000801b6116d4816116cf611a6f565b611f4e565b6116fe7f9f2df0fed2c77648de5860a4cc508cd0818c85b8b8a1ab4ceeef8d981c8956a683610ba4565b5050565b6000801b61171781611712611a6f565b611f4e565b6117417f14823911f2da1b49f045a0929a60b8c1f2a7fc8c06c7284ca3e8ab4e193a08c8836120cc565b5050565b7f14823911f2da1b49f045a0929a60b8c1f2a7fc8c06c7284ca3e8ab4e193a08c861177781611772611a6f565b611f4e565b600161015f600082825461178b91906137a1565b9250508190555050565b7f9f2df0fed2c77648de5860a4cc508cd0818c85b8b8a1ab4ceeef8d981c8956a681565b6117c282610b36565b6117d3816117ce611a6f565b611f4e565b6117dd83836120cc565b505050565b6000603460008473ffffffffffffffffffffffffffffffffffffffff1673ffffffffffffffffffffffffffffffffffffffff16815260200190815260200160002060008373ffffffffffffffffffffffffffffffffffffffff1673ffffffffffffffffffffffffffffffffffffffff16815260200190815260200160002054905092915050565b6060610160805461187990613562565b80601f01602080910402602001604051908101604052809291908181526020018280546118a590613562565b80156118f25780601f106118c7576101008083540402835291602001916118f2565b820191906000526020600020905b8154815290600101906020018083116118d557829003601f168201915b5050505050905090565b60006119287f14823911f2da1b49f045a0929a60b8c1f2a7fc8c06c7284ca3e8ab4e193a08c88361144a565b9050919050565b610160805461193d90613562565b80601f016020809104026020016040519081016040528092919081815260200182805461196990613562565b80156119b65780601f1061198b576101008083540402835291602001916119b6565b820191906000526020600020905b81548152906001019060200180831161199957829003601f168201915b505050505081565b7f189ab7a9244df0848122154315af71fe140f3db0fe014031783b0946b8c9d2e381565b6000808273ffffffffffffffffffffffffffffffffffffffff163b119050919050565b60007f01ffc9a7000000000000000000000000000000000000000000000000000000007bffffffffffffffffffffffffffffffffffffffffffffffffffffffff1916827bffffffffffffffffffffffffffffffffffffffffffffffffffffffff1916149050919050565b600033905090565b600073ffffffffffffffffffffffffffffffffffffffff168373ffffffffffffffffffffffffffffffffffffffff1603611ae6576040517f08c379a0000000000000000000000000000000000000000000000000000000008152600401611add90613bf7565b60405180910390fd5b600073ffffffffffffffffffffffffffffffffffffffff168273ffffffffffffffffffffffffffffffffffffffff1603611b55576040517f08c379a0000000000000000000000000000000000000000000000000000000008152600401611b4c90613c89565b60405180910390fd5b80603460008573ffffffffffffffffffffffffffffffffffffffff1673ffffffffffffffffffffffffffffffffffffffff16815260200190815260200160002060008473ffffffffffffffffffffffffffffffffffffffff1673ffffffffffffffffffffffffffffffffffffffff168152602001908152602001600020819055508173ffffffffffffffffffffffffffffffffffffffff168373ffffffffffffffffffffffffffffffffffffffff167f8c5be1e5ebec7d5bd14f71427d1e84f3dd0314c0f7b2291e5b200ac8c7c3b92583604051611c339190612f27565b60405180910390a3505050565b6000611c4c84846117e2565b90507fffffffffffffffffffffffffffffffffffffffffffffffffffffffffffffffff8114611cc65781811015611cb8576040517f08c379a0000000000000000000000000000000000000000000000000000000008152600401611caf90613cf5565b60405180910390fd5b611cc58484848403611a77565b5b50505050565b600073ffffffffffffffffffffffffffffffffffffffff168373ffffffffffffffffffffffffffffffffffffffff1603611d3b576040517f08c379a0000000000000000000000000000000000000000000000000000000008152600401611d3290613d87565b60405180910390fd5b600073ffffffffffffffffffffffffffffffffffffffff168273ffffffffffffffffffffffffffffffffffffffff1603611daa576040517f08c379a0000000000000000000000000000000000000000000000000000000008152600401611da190613e19565b60405180910390fd5b611db5838383612842565b6000603360008573ffffffffffffffffffffffffffffffffffffffff1673ffffffffffffffffffffffffffffffffffffffff16815260200190815260200160002054905081811015611e3c576040517f08c379a0000000000000000000000000000000000000000000000000000000008152600401611e3390613eab565b60405180910390fd5b818103603360008673ffffffffffffffffffffffffffffffffffffffff1673ffffffffffffffffffffffffffffffffffffffff1681526020019081526020016000208190555081603360008573ffffffffffffffffffffffffffffffffffffffff1673ffffffffffffffffffffffffffffffffffffffff1681526020019081526020016000206000828254611ed191906137a1565b925050819055508273ffffffffffffffffffffffffffffffffffffffff168473ffffffffffffffffffffffffffffffffffffffff167fddf252ad1be2c89b69c2b068fc378daa952ba7f163c4a11628f55a4df523b3ef84604051611f359190612f27565b60405180910390a3611f48848484612847565b50505050565b611f58828261144a565b611fe757611f7d8173ffffffffffffffffffffffffffffffffffffffff16601461284c565b611f8b8360001c602061284c565b604051602001611f9c929190613f9f565b6040516020818303038152906040526040517f08c379a0000000000000000000000000000000000000000000000000000000008152600401611fde9190612fdb565b60405180910390fd5b5050565b611ff5828261144a565b6120c857600160c9600084815260200190815260200160002060000160008373ffffffffffffffffffffffffffffffffffffffff1673ffffffffffffffffffffffffffffffffffffffff16815260200190815260200160002060006101000a81548160ff02191690831515021790555061206d611a6f565b73ffffffffffffffffffffffffffffffffffffffff168173ffffffffffffffffffffffffffffffffffffffff16837f2f8788117e7eff1d82e926ec794901d17c78024a50270940304540a733656f0d60405160405180910390a45b5050565b6120d6828261144a565b156121aa57600060c9600084815260200190815260200160002060000160008373ffffffffffffffffffffffffffffffffffffffff1673ffffffffffffffffffffffffffffffffffffffff16815260200190815260200160002060006101000a81548160ff02191690831515021790555061214f611a6f565b73ffffffffffffffffffffffffffffffffffffffff168173ffffffffffffffffffffffffffffffffffffffff16837ff6391f5c32d9c69d2a47ea670b442974b53935d1edc7fd64eb21e047a839171b60405160405180910390a45b5050565b60006121dc7f360894a13ba1a3210667c828492db98dca3e2076cc3735a920a3ca505d382bbc60001b612a88565b60000160009054906101000a900473ffffffffffffffffffffffffffffffffffffffff16905090565b7f189ab7a9244df0848122154315af71fe140f3db0fe014031783b0946b8c9d2e361223781612232611a6f565b611f4e565b5050565b6122677f4910fdfa16fed3260ed0e7147f7cc6da11a60208b5b9406d12a635614ffd914360001b612a92565b60000160009054906101000a900460ff161561228b5761228683612a9c565b6123a4565b8273ffffffffffffffffffffffffffffffffffffffff166352d1902d6040518163ffffffff1660e01b8152600401602060405180830381865afa9250505080156122f357506040513d601f19601f820116820180604052508101906122f09190613fee565b60015b612332576040517f08c379a00000000000000000000000000000000000000000000000000000000081526004016123299061408d565b60405180910390fd5b7f360894a13ba1a3210667c828492db98dca3e2076cc3735a920a3ca505d382bbc60001b8114612397576040517f08c379a000000000000000000000000000000000000000000000000000000000815260040161238e9061411f565b60405180910390fd5b506123a3838383612b55565b5b505050565b600073ffffffffffffffffffffffffffffffffffffffff168273ffffffffffffffffffffffffffffffffffffffff1603612418576040517f08c379a000000000000000000000000000000000000000000000000000000000815260040161240f9061418b565b60405180910390fd5b61242460008383612842565b806035600082825461243691906137a1565b9250508190555080603360008473ffffffffffffffffffffffffffffffffffffffff1673ffffffffffffffffffffffffffffffffffffffff168152602001908152602001600020600082825461248c91906137a1565b925050819055508173ffffffffffffffffffffffffffffffffffffffff16600073ffffffffffffffffffffffffffffffffffffffff167fddf252ad1be2c89b69c2b068fc378daa952ba7f163c4a11628f55a4df523b3ef836040516124f19190612f27565b60405180910390a361250560008383612847565b5050565b600073ffffffffffffffffffffffffffffffffffffffff168273ffffffffffffffffffffffffffffffffffffffff1603612578576040517f08c379a000000000000000000000000000000000000000000000000000000000815260040161256f9061421d565b60405180910390fd5b61258482600083612842565b6000603360008473ffffffffffffffffffffffffffffffffffffffff1673ffffffffffffffffffffffffffffffffffffffff1681526020019081526020016000205490508181101561260b576040517f08c379a0000000000000000000000000000000000000000000000000000000008152600401612602906142af565b60405180910390fd5b818103603360008573ffffffffffffffffffffffffffffffffffffffff1673ffffffffffffffffffffffffffffffffffffffff16815260200190815260200160002081905550816035600082825461266391906142cf565b92505081905550600073ffffffffffffffffffffffffffffffffffffffff168373ffffffffffffffffffffffffffffffffffffffff167fddf252ad1be2c89b69c2b068fc378daa952ba7f163c4a11628f55a4df523b3ef846040516126c89190612f27565b60405180910390a36126dc83600084612847565b505050565b60006126ec306119e2565b15905090565b600060019054906101000a900460ff16612741576040517f08c379a000000000000000000000000000000000000000000000000000000000815260040161273890614375565b60405180910390fd5b61274b8282612b81565b5050565b600060019054906101000a900460ff1661279e576040517f08c379a000000000000000000000000000000000000000000000000000000000815260040161279590614375565b60405180910390fd5b565b600060019054906101000a900460ff166127ef576040517f08c379a00000000000000000000000000000000000000000000000000000000081526004016127e690614375565b60405180910390fd5b565b600060019054906101000a900460ff16612840576040517f08c379a000000000000000000000000000000000000000000000000000000000815260040161283790614375565b60405180910390fd5b565b505050565b505050565b60606000600283600261285f9190613a99565b61286991906137a1565b67ffffffffffffffff81111561288257612881613282565b5b6040519080825280601f01601f1916602001820160405280156128b45781602001600182028036833780820191505090505b5090507f3000000000000000000000000000000000000000000000000000000000000000816000815181106128ec576128eb614395565b5b60200101907effffffffffffffffffffffffffffffffffffffffffffffffffffffffffffff1916908160001a9053507f7800000000000000000000000000000000000000000000000000000000000000816001815181106129505761294f614395565b5b60200101907effffffffffffffffffffffffffffffffffffffffffffffffffffffffffffff1916908160001a905350600060018460026129909190613a99565b61299a91906137a1565b90505b6001811115612a3a577f3031323334353637383961626364656600000000000000000000000000000000600f8616601081106129dc576129db614395565b5b1a60f81b8282815181106129f3576129f2614395565b5b60200101907effffffffffffffffffffffffffffffffffffffffffffffffffffffffffffff1916908160001a905350600485901c945080612a33906135c2565b905061299d565b5060008414612a7e576040517f08c379a0000000000000000000000000000000000000000000000000000000008152600401612a7590614410565b60405180910390fd5b8091505092915050565b6000819050919050565b6000819050919050565b612aa5816119e2565b612ae4576040517f08c379a0000000000000000000000000000000000000000000000000000000008152600401612adb906144a2565b60405180910390fd5b80612b117f360894a13ba1a3210667c828492db98dca3e2076cc3735a920a3ca505d382bbc60001b612a88565b60000160006101000a81548173ffffffffffffffffffffffffffffffffffffffff021916908373ffffffffffffffffffffffffffffffffffffffff16021790555050565b612b5e83612c02565b600082511180612b6b5750805b15612b7c57612b7a8383612c51565b505b505050565b600060019054906101000a900460ff16612bd0576040517f08c379a0000000000000000000000000000000000000000000000000000000008152600401612bc790614375565b60405180910390fd5b8160369080519060200190612be6929190612d9c565b508060379080519060200190612bfd929190612d9c565b505050565b612c0b81612a9c565b8073ffffffffffffffffffffffffffffffffffffffff167fbc7cd75a20ee27fd9adebab32041f755214dbc6bffa90cc0225b39da2e5c2d3b60405160405180910390a250565b6060612c5c836119e2565b612c9b576040517f08c379a0000000000000000000000000000000000000000000000000000000008152600401612c9290614534565b60405180910390fd5b6000808473ffffffffffffffffffffffffffffffffffffffff1684604051612cc3919061459b565b600060405180830381855af49150503d8060008114612cfe576040519150601f19603f3d011682016040523d82523d6000602084013e612d03565b606091505b5091509150612d2b82826040518060600160405280602781526020016145b360279139612d35565b9250505092915050565b60608315612d4557829050612d95565b600083511115612d585782518084602001fd5b816040517f08c379a0000000000000000000000000000000000000000000000000000000008152600401612d8c9190612fdb565b60405180910390fd5b9392505050565b828054612da890613562565b90600052602060002090601f016020900481019282612dca5760008555612e11565b82601f10612de357805160ff1916838001178555612e11565b82800160010185558215612e11579182015b82811115612e10578251825591602001919060010190612df5565b5b509050612e1e9190612e22565b5090565b5b80821115612e3b576000816000905550600101612e23565b5090565b6000604051905090565b600080fd5b600080fd5b60007fffffffff0000000000000000000000000000000000000000000000000000000082169050919050565b612e8881612e53565b8114612e9357600080fd5b50565b600081359050612ea581612e7f565b92915050565b600060208284031215612ec157612ec0612e49565b5b6000612ecf84828501612e96565b91505092915050565b60008115159050919050565b612eed81612ed8565b82525050565b6000602082019050612f086000830184612ee4565b92915050565b6000819050919050565b612f2181612f0e565b82525050565b6000602082019050612f3c6000830184612f18565b92915050565b600081519050919050565b600082825260208201905092915050565b60005b83811015612f7c578082015181840152602081019050612f61565b83811115612f8b576000848401525b50505050565b6000601f19601f8301169050919050565b6000612fad82612f42565b612fb78185612f4d565b9350612fc7818560208601612f5e565b612fd081612f91565b840191505092915050565b60006020820190508181036000830152612ff58184612fa2565b905092915050565b600073ffffffffffffffffffffffffffffffffffffffff82169050919050565b600061302882612ffd565b9050919050565b6130388161301d565b811461304357600080fd5b50565b6000813590506130558161302f565b92915050565b61306481612f0e565b811461306f57600080fd5b50565b6000813590506130818161305b565b92915050565b6000806040838503121561309e5761309d612e49565b5b60006130ac85828601613046565b92505060206130bd85828601613072565b9150509250929050565b6000819050919050565b6130da816130c7565b82525050565b60006020820190506130f560008301846130d1565b92915050565b60008060006060848603121561311457613113612e49565b5b600061312286828701613046565b935050602061313386828701613046565b925050604061314486828701613072565b9150509250925092565b613157816130c7565b811461316257600080fd5b50565b6000813590506131748161314e565b92915050565b6000602082840312156131905761318f612e49565b5b600061319e84828501613165565b91505092915050565b600080604083850312156131be576131bd612e49565b5b60006131cc85828601613165565b92505060206131dd85828601613046565b9150509250929050565b600060ff82169050919050565b6131fd816131e7565b82525050565b600060208201905061321860008301846131f4565b92915050565b60006020828403121561323457613233612e49565b5b600061324284828501613046565b91505092915050565b60006020828403121561326157613260612e49565b5b600061326f84828501613072565b91505092915050565b600080fd5b600080fd5b7f4e487b7100000000000000000000000000000000000000000000000000000000600052604160045260246000fd5b6132ba82612f91565b810181811067ffffffffffffffff821117156132d9576132d8613282565b5b80604052505050565b60006132ec612e3f565b90506132f882826132b1565b919050565b600067ffffffffffffffff82111561331857613317613282565b5b61332182612f91565b9050602081019050919050565b82818337600083830152505050565b600061335061334b846132fd565b6132e2565b90508281526020810184848401111561336c5761336b61327d565b5b61337784828561332e565b509392505050565b600082601f83011261339457613393613278565b5b81356133a484826020860161333d565b91505092915050565b600080604083850312156133c4576133c3612e49565b5b60006133d285828601613046565b925050602083013567ffffffffffffffff8111156133f3576133f2612e4e565b5b6133ff8582860161337f565b9150509250929050565b600067ffffffffffffffff82111561342457613423613282565b5b61342d82612f91565b9050602081019050919050565b600061344d61344884613409565b6132e2565b9050828152602081018484840111156134695761346861327d565b5b61347484828561332e565b509392505050565b600082601f83011261349157613490613278565b5b81356134a184826020860161343a565b91505092915050565b6000602082840312156134c0576134bf612e49565b5b600082013567ffffffffffffffff8111156134de576134dd612e4e565b5b6134ea8482850161347c565b91505092915050565b6000806040838503121561350a57613509612e49565b5b600061351885828601613046565b925050602061352985828601613046565b9150509250929050565b7f4e487b7100000000000000000000000000000000000000000000000000000000600052602260045260246000fd5b6000600282049050600182168061357a57607f821691505b60208210810361358d5761358c613533565b5b50919050565b7f4e487b7100000000000000000000000000000000000000000000000000000000600052601160045260246000fd5b60006135cd82612f0e565b9150600082036135e0576135df613593565b5b600182039050919050565b7f416363657373436f6e74726f6c3a2063616e206f6e6c792072656e6f756e636560008201527f20726f6c657320666f722073656c660000000000000000000000000000000000602082015250565b6000613647602f83612f4d565b9150613652826135eb565b604082019050919050565b600060208201905081810360008301526136768161363a565b9050919050565b7f46756e6374696f6e206d7573742062652063616c6c6564207468726f7567682060008201527f64656c656761746563616c6c0000000000000000000000000000000000000000602082015250565b60006136d9602c83612f4d565b91506136e48261367d565b604082019050919050565b60006020820190508181036000830152613708816136cc565b9050919050565b7f46756e6374696f6e206d7573742062652063616c6c6564207468726f7567682060008201527f6163746976652070726f78790000000000000000000000000000000000000000602082015250565b600061376b602c83612f4d565b91506137768261370f565b604082019050919050565b6000602082019050818103600083015261379a8161375e565b9050919050565b60006137ac82612f0e565b91506137b783612f0e565b9250827fffffffffffffffffffffffffffffffffffffffffffffffffffffffffffffffff038211156137ec576137eb613593565b5b828201905092915050565b7f555550535570677261646561626c653a206d757374206e6f742062652063616c60008201527f6c6564207468726f7567682064656c656761746563616c6c0000000000000000602082015250565b6000613853603883612f4d565b915061385e826137f7565b604082019050919050565b6000602082019050818103600083015261388281613846565b9050919050565b7f496e697469616c697a61626c653a20636f6e747261637420697320616c72656160008201527f647920696e697469616c697a6564000000000000000000000000000000000000602082015250565b60006138e5602e83612f4d565b91506138f082613889565b604082019050919050565b60006020820190508181036000830152613914816138d8565b9050919050565b60008160011c9050919050565b6000808291508390505b60018511156139725780860481111561394e5761394d613593565b5b600185161561395d5780820291505b808102905061396b8561391b565b9450613932565b94509492505050565b60008261398b5760019050613a47565b816139995760009050613a47565b81600181146139af57600281146139b9576139e8565b6001915050613a47565b60ff8411156139cb576139ca613593565b5b8360020a9150848211156139e2576139e1613593565b5b50613a47565b5060208310610133831016604e8410600b8410161715613a1d5782820a905083811115613a1857613a17613593565b5b613a47565b613a2a8484846001613928565b92509050818404811115613a4157613a40613593565b5b81810290505b9392505050565b6000613a5982612f0e565b9150613a64836131e7565b9250613a917fffffffffffffffffffffffffffffffffffffffffffffffffffffffffffffffff848461397b565b905092915050565b6000613aa482612f0e565b9150613aaf83612f0e565b9250817fffffffffffffffffffffffffffffffffffffffffffffffffffffffffffffffff0483118215151615613ae857613ae7613593565b5b828202905092915050565b7f45524332303a2064656372656173656420616c6c6f77616e63652062656c6f7760008201527f207a65726f000000000000000000000000000000000000000000000000000000602082015250565b6000613b4f602583612f4d565b9150613b5a82613af3565b604082019050919050565b60006020820190508181036000830152613b7e81613b42565b9050919050565b7f45524332303a20617070726f76652066726f6d20746865207a65726f2061646460008201527f7265737300000000000000000000000000000000000000000000000000000000602082015250565b6000613be1602483612f4d565b9150613bec82613b85565b604082019050919050565b60006020820190508181036000830152613c1081613bd4565b9050919050565b7f45524332303a20617070726f766520746f20746865207a65726f20616464726560008201527f7373000000000000000000000000000000000000000000000000000000000000602082015250565b6000613c73602283612f4d565b9150613c7e82613c17565b604082019050919050565b60006020820190508181036000830152613ca281613c66565b9050919050565b7f45524332303a20696e73756666696369656e7420616c6c6f77616e6365000000600082015250565b6000613cdf601d83612f4d565b9150613cea82613ca9565b602082019050919050565b60006020820190508181036000830152613d0e81613cd2565b9050919050565b7f45524332303a207472616e736665722066726f6d20746865207a65726f20616460008201527f6472657373000000000000000000000000000000000000000000000000000000602082015250565b6000613d71602583612f4d565b9150613d7c82613d15565b604082019050919050565b60006020820190508181036000830152613da081613d64565b9050919050565b7f45524332303a207472616e7366657220746f20746865207a65726f206164647260008201527f6573730000000000000000000000000000000000000000000000000000000000602082015250565b6000613e03602383612f4d565b9150613e0e82613da7565b604082019050919050565b60006020820190508181036000830152613e3281613df6565b9050919050565b7f45524332303a207472616e7366657220616d6f756e742065786365656473206260008201527f616c616e63650000000000000000000000000000000000000000000000000000602082015250565b6000613e95602683612f4d565b9150613ea082613e39565b604082019050919050565b60006020820190508181036000830152613ec481613e88565b9050919050565b600081905092915050565b7f416363657373436f6e74726f6c3a206163636f756e7420000000000000000000600082015250565b6000613f0c601783613ecb565b9150613f1782613ed6565b601782019050919050565b6000613f2d82612f42565b613f378185613ecb565b9350613f47818560208601612f5e565b80840191505092915050565b7f206973206d697373696e6720726f6c6520000000000000000000000000000000600082015250565b6000613f89601183613ecb565b9150613f9482613f53565b601182019050919050565b6000613faa82613eff565b9150613fb68285613f22565b9150613fc182613f7c565b9150613fcd8284613f22565b91508190509392505050565b600081519050613fe88161314e565b92915050565b60006020828403121561400457614003612e49565b5b600061401284828501613fd9565b91505092915050565b7f45524331393637557067726164653a206e657720696d706c656d656e7461746960008201527f6f6e206973206e6f742055555053000000000000000000000000000000000000602082015250565b6000614077602e83612f4d565b91506140828261401b565b604082019050919050565b600060208201905081810360008301526140a68161406a565b9050919050565b7f45524331393637557067726164653a20756e737570706f727465642070726f7860008201527f6961626c65555549440000000000000000000000000000000000000000000000602082015250565b6000614109602983612f4d565b9150614114826140ad565b604082019050919050565b60006020820190508181036000830152614138816140fc565b9050919050565b7f45524332303a206d696e7420746f20746865207a65726f206164647265737300600082015250565b6000614175601f83612f4d565b91506141808261413f565b602082019050919050565b600060208201905081810360008301526141a481614168565b9050919050565b7f45524332303a206275726e2066726f6d20746865207a65726f2061646472657360008201527f7300000000000000000000000000000000000000000000000000000000000000602082015250565b6000614207602183612f4d565b9150614212826141ab565b604082019050919050565b60006020820190508181036000830152614236816141fa565b9050919050565b7f45524332303a206275726e20616d6f756e7420657863656564732062616c616e60008201527f6365000000000000000000000000000000000000000000000000000000000000602082015250565b6000614299602283612f4d565b91506142a48261423d565b604082019050919050565b600060208201905081810360008301526142c88161428c565b9050919050565b60006142da82612f0e565b91506142e583612f0e565b9250828210156142f8576142f7613593565b5b828203905092915050565b7f496e697469616c697a61626c653a20636f6e7472616374206973206e6f74206960008201527f6e697469616c697a696e67000000000000000000000000000000000000000000602082015250565b600061435f602b83612f4d565b915061436a82614303565b604082019050919050565b6000602082019050818103600083015261438e81614352565b9050919050565b7f4e487b7100000000000000000000000000000000000000000000000000000000600052603260045260246000fd5b7f537472696e67733a20686578206c656e67746820696e73756666696369656e74600082015250565b60006143fa602083612f4d565b9150614405826143c4565b602082019050919050565b60006020820190508181036000830152614429816143ed565b9050919050565b7f455243313936373a206e657720696d706c656d656e746174696f6e206973206e60008201527f6f74206120636f6e747261637400000000000000000000000000000000000000602082015250565b600061448c602d83612f4d565b915061449782614430565b604082019050919050565b600060208201905081810360008301526144bb8161447f565b9050919050565b7f416464726573733a2064656c65676174652063616c6c20746f206e6f6e2d636f60008201527f6e74726163740000000000000000000000000000000000000000000000000000602082015250565b600061451e602683612f4d565b9150614529826144c2565b604082019050919050565b6000602082019050818103600083015261454d81614511565b9050919050565b600081519050919050565b600081905092915050565b600061457582614554565b61457f818561455f565b935061458f818560208601612f5e565b80840191505092915050565b60006145a7828461456a565b91508190509291505056fe416464726573733a206c6f772d6c6576656c2064656c65676174652063616c6c206661696c6564a26469706673582212209b3b0f6905dad20ee7fb518703e20021feaf2a83c0539d6cd78b088f65b42cc564736f6c634300080d0033",
  "immutableReferences": {
    "898": [
      {
        "length": 32,
        "start": 3163
      },
      {
        "length": 32,
        "start": 3305
      },
      {
        "length": 32,
        "start": 3861
      },
      {
        "length": 32,
        "start": 4003
      },
      {
        "length": 32,
        "start": 4179
      }
    ]
  },
  "source": "// SPDX-License-Identifier: MIT\npragma solidity ^0.8.4;\n\nimport \"@openzeppelin/contracts-upgradeable/token/ERC20/ERC20Upgradeable.sol\";\nimport \"@openzeppelin/contracts-upgradeable/token/ERC20/extensions/ERC20BurnableUpgradeable.sol\";\nimport \"@openzeppelin/contracts-upgradeable/access/AccessControlUpgradeable.sol\";\nimport \"@openzeppelin/contracts-upgradeable/proxy/utils/Initializable.sol\";\nimport \"@openzeppelin/contracts-upgradeable/proxy/utils/UUPSUpgradeable.sol\";\n\ncontract DLTSCBTokenV2 is Initializable, ERC20Upgradeable, ERC20BurnableUpgradeable, AccessControlUpgradeable, UUPSUpgradeable {\n    bytes32 public constant MINTER_ROLE = keccak256(\"MINTER_ROLE\");\n    bytes32 public constant UPGRADER_ROLE = keccak256(\"UPGRADER_ROLE\");\n    bytes32 public constant USER_ROLE = keccak256(\"USER_ROLE\");\n    //    bytes32 public constant INTERN_ROLE = keccak256(\"INTERN_ROLE\");\n    uint256 public count;\n    string public setMessage;\n\n    /// @custom:oz-upgrades-unsafe-allow constructor\n    constructor() initializer {}\n\n    function initialize() initializer public {\n        __ERC20_init(\"DLTSCBToken\", \"SCB\");\n        __ERC20Burnable_init();\n        __AccessControl_init();\n        __UUPSUpgradeable_init();\n\n        _mint(msg.sender, 1000 * 10 ** decimals());\n        // _setupRole(DEFAULT_ADMIN_ROLE, msg.sender);\n        // _setRoleAdmin(USER_ROLE, DEFAULT_ADMIN_ROLE);\n        // _setRoleAdmin(INTERN_ROLE, USER_ROLE);\n\n        _grantRole(DEFAULT_ADMIN_ROLE, msg.sender);\n        _grantRole(MINTER_ROLE, msg.sender);\n        _grantRole(UPGRADER_ROLE, msg.sender);\n        _grantRole(USER_ROLE, msg.sender);\n        count = 0;\n        setMessage = \"V1-Reporting\";\n    }\n\n   // Function that increments our counter\n    function increment() public onlyRole(USER_ROLE) {\n        // require(hasRole(USER_ROLE, msg.sender));\n        count += 1;\n    }\n    function setText(string memory _setText) public {\n        setMessage = _setText;\n    }\n      // Not necessary getter to get the count value\n    function getCount() public onlyRole(USER_ROLE) view returns (uint256)  {\n        return count;\n    }\n    // Function that increments our counter\n    function decrement() public onlyRole(USER_ROLE) {\n        count--;\n    }\n    function getText() public view returns(string memory) {\n        return(setMessage);\n    }\n    function mint(address to, uint256 amount) public onlyRole(MINTER_ROLE) {\n        _mint(to, amount);\n    }\n\n\n    function addUserToAdminRole (address account) public onlyRole(DEFAULT_ADMIN_ROLE) {\n        grantRole(DEFAULT_ADMIN_ROLE, account);\n    }\n\n    function addUserRole (address account) public onlyRole(DEFAULT_ADMIN_ROLE) {\n        grantRole(USER_ROLE, account);\n    }\n\n   function isUserRole(address account) public view returns (bool) {\n        return hasRole(USER_ROLE, account);\n    }\n     function addMinterRole (address account) public onlyRole(DEFAULT_ADMIN_ROLE) {\n        grantRole(MINTER_ROLE, account);\n    }\n  \n    function isMinterRole(address account) public view returns (bool) {\n        return hasRole(MINTER_ROLE, account);\n    }\n  \n    function revokeUserRole (address _account) public onlyRole(DEFAULT_ADMIN_ROLE) {\n        _revokeRole(USER_ROLE, _account);\n    }\n\n  \n \n\n  \n//  // Not necessary getter to get the count value restricted\n//     function getCount2() public onlyRole(USER_ROLE) view returns (uint256) {\n//         return count;\n//     }\n  \n//     function decrement2() public onlyRole(USER_ROLE) {\n//         count--;\n//     }\n\n    function _authorizeUpgrade(address newImplementation)\n        internal\n        onlyRole(UPGRADER_ROLE)\n        override\n    {}\n}",
  "sourcePath": "/Users/pinkyjain/Downloads/BLOCKCHAIN/ethereum-private-blockchain/truffle-uups-accesscontrol/contracts/contracts_v1v2/ERC20CustomUpgradeable/DTLSCBTokenV2.sol",
  "compiler": {
    "name": "solc",
    "version": "0.8.13+commit.abaa5c0e.Emscripten.clang"
  },
  "schemaVersion": "3.4.5",
  "updatedAt": "2022-04-16T04:20:27.313Z",
  "devdoc": {
    "kind": "dev",
    "methods": {
      "allowance(address,address)": {
        "details": "See {IERC20-allowance}."
      },
      "approve(address,uint256)": {
        "details": "See {IERC20-approve}. NOTE: If `amount` is the maximum `uint256`, the allowance is not updated on `transferFrom`. This is semantically equivalent to an infinite approval. Requirements: - `spender` cannot be the zero address."
      },
      "balanceOf(address)": {
        "details": "See {IERC20-balanceOf}."
      },
      "burn(uint256)": {
        "details": "Destroys `amount` tokens from the caller. See {ERC20-_burn}."
      },
      "burnFrom(address,uint256)": {
        "details": "Destroys `amount` tokens from `account`, deducting from the caller's allowance. See {ERC20-_burn} and {ERC20-allowance}. Requirements: - the caller must have allowance for ``accounts``'s tokens of at least `amount`."
      },
      "constructor": {
        "custom:oz-upgrades-unsafe-allow": "constructor"
      },
      "decimals()": {
        "details": "Returns the number of decimals used to get its user representation. For example, if `decimals` equals `2`, a balance of `505` tokens should be displayed to a user as `5.05` (`505 / 10 ** 2`). Tokens usually opt for a value of 18, imitating the relationship between Ether and Wei. This is the value {ERC20} uses, unless this function is overridden; NOTE: This information is only used for _display_ purposes: it in no way affects any of the arithmetic of the contract, including {IERC20-balanceOf} and {IERC20-transfer}."
      },
      "decreaseAllowance(address,uint256)": {
        "details": "Atomically decreases the allowance granted to `spender` by the caller. This is an alternative to {approve} that can be used as a mitigation for problems described in {IERC20-approve}. Emits an {Approval} event indicating the updated allowance. Requirements: - `spender` cannot be the zero address. - `spender` must have allowance for the caller of at least `subtractedValue`."
      },
      "getRoleAdmin(bytes32)": {
        "details": "Returns the admin role that controls `role`. See {grantRole} and {revokeRole}. To change a role's admin, use {_setRoleAdmin}."
      },
      "grantRole(bytes32,address)": {
        "details": "Grants `role` to `account`. If `account` had not been already granted `role`, emits a {RoleGranted} event. Requirements: - the caller must have ``role``'s admin role."
      },
      "hasRole(bytes32,address)": {
        "details": "Returns `true` if `account` has been granted `role`."
      },
      "increaseAllowance(address,uint256)": {
        "details": "Atomically increases the allowance granted to `spender` by the caller. This is an alternative to {approve} that can be used as a mitigation for problems described in {IERC20-approve}. Emits an {Approval} event indicating the updated allowance. Requirements: - `spender` cannot be the zero address."
      },
      "name()": {
        "details": "Returns the name of the token."
      },
      "proxiableUUID()": {
        "details": "Implementation of the ERC1822 {proxiableUUID} function. This returns the storage slot used by the implementation. It is used to validate that the this implementation remains valid after an upgrade. IMPORTANT: A proxy pointing at a proxiable contract should not be considered proxiable itself, because this risks bricking a proxy that upgrades to it, by delegating to itself until out of gas. Thus it is critical that this function revert if invoked through a proxy. This is guaranteed by the `notDelegated` modifier."
      },
      "renounceRole(bytes32,address)": {
        "details": "Revokes `role` from the calling account. Roles are often managed via {grantRole} and {revokeRole}: this function's purpose is to provide a mechanism for accounts to lose their privileges if they are compromised (such as when a trusted device is misplaced). If the calling account had been revoked `role`, emits a {RoleRevoked} event. Requirements: - the caller must be `account`."
      },
      "revokeRole(bytes32,address)": {
        "details": "Revokes `role` from `account`. If `account` had been granted `role`, emits a {RoleRevoked} event. Requirements: - the caller must have ``role``'s admin role."
      },
      "supportsInterface(bytes4)": {
        "details": "See {IERC165-supportsInterface}."
      },
      "symbol()": {
        "details": "Returns the symbol of the token, usually a shorter version of the name."
      },
      "totalSupply()": {
        "details": "See {IERC20-totalSupply}."
      },
      "transfer(address,uint256)": {
        "details": "See {IERC20-transfer}. Requirements: - `to` cannot be the zero address. - the caller must have a balance of at least `amount`."
      },
      "transferFrom(address,address,uint256)": {
        "details": "See {IERC20-transferFrom}. Emits an {Approval} event indicating the updated allowance. This is not required by the EIP. See the note at the beginning of {ERC20}. NOTE: Does not update the allowance if the current allowance is the maximum `uint256`. Requirements: - `from` and `to` cannot be the zero address. - `from` must have a balance of at least `amount`. - the caller must have allowance for ``from``'s tokens of at least `amount`."
      },
      "upgradeTo(address)": {
        "details": "Upgrade the implementation of the proxy to `newImplementation`. Calls {_authorizeUpgrade}. Emits an {Upgraded} event."
      },
      "upgradeToAndCall(address,bytes)": {
        "details": "Upgrade the implementation of the proxy to `newImplementation`, and subsequently execute the function call encoded in `data`. Calls {_authorizeUpgrade}. Emits an {Upgraded} event."
      }
    },
    "version": 1
  },
  "userdoc": {
    "kind": "user",
    "methods": {},
    "version": 1
  }
}