{
  "contractName": "DLTSCBTokenV1",
  "abi": [
    {
      "inputs": [],
      "stateMutability": "nonpayable",
      "type": "constructor"
    },
    {
      "anonymous": false,
      "inputs": [
        {
          "indexed": false,
          "internalType": "address",
          "name": "previousAdmin",
          "type": "address"
        },
        {
          "indexed": false,
          "internalType": "address",
          "name": "newAdmin",
          "type": "address"
        }
      ],
      "name": "AdminChanged",
      "type": "event"
    },
    {
      "anonymous": false,
      "inputs": [
        {
          "indexed": true,
          "internalType": "address",
          "name": "owner",
          "type": "address"
        },
        {
          "indexed": true,
          "internalType": "address",
          "name": "spender",
          "type": "address"
        },
        {
          "indexed": false,
          "internalType": "uint256",
          "name": "value",
          "type": "uint256"
        }
      ],
      "name": "Approval",
      "type": "event"
    },
    {
      "anonymous": false,
      "inputs": [
        {
          "indexed": true,
          "internalType": "address",
          "name": "beacon",
          "type": "address"
        }
      ],
      "name": "BeaconUpgraded",
      "type": "event"
    },
    {
      "anonymous": false,
      "inputs": [
        {
          "indexed": true,
          "internalType": "bytes32",
          "name": "role",
          "type": "bytes32"
        },
        {
          "indexed": true,
          "internalType": "bytes32",
          "name": "previousAdminRole",
          "type": "bytes32"
        },
        {
          "indexed": true,
          "internalType": "bytes32",
          "name": "newAdminRole",
          "type": "bytes32"
        }
      ],
      "name": "RoleAdminChanged",
      "type": "event"
    },
    {
      "anonymous": false,
      "inputs": [
        {
          "indexed": true,
          "internalType": "bytes32",
          "name": "role",
          "type": "bytes32"
        },
        {
          "indexed": true,
          "internalType": "address",
          "name": "account",
          "type": "address"
        },
        {
          "indexed": true,
          "internalType": "address",
          "name": "sender",
          "type": "address"
        }
      ],
      "name": "RoleGranted",
      "type": "event"
    },
    {
      "anonymous": false,
      "inputs": [
        {
          "indexed": true,
          "internalType": "bytes32",
          "name": "role",
          "type": "bytes32"
        },
        {
          "indexed": true,
          "internalType": "address",
          "name": "account",
          "type": "address"
        },
        {
          "indexed": true,
          "internalType": "address",
          "name": "sender",
          "type": "address"
        }
      ],
      "name": "RoleRevoked",
      "type": "event"
    },
    {
      "anonymous": false,
      "inputs": [
        {
          "indexed": true,
          "internalType": "address",
          "name": "from",
          "type": "address"
        },
        {
          "indexed": true,
          "internalType": "address",
          "name": "to",
          "type": "address"
        },
        {
          "indexed": false,
          "internalType": "uint256",
          "name": "value",
          "type": "uint256"
        }
      ],
      "name": "Transfer",
      "type": "event"
    },
    {
      "anonymous": false,
      "inputs": [
        {
          "indexed": true,
          "internalType": "address",
          "name": "implementation",
          "type": "address"
        }
      ],
      "name": "Upgraded",
      "type": "event"
    },
    {
      "inputs": [],
      "name": "DEFAULT_ADMIN_ROLE",
      "outputs": [
        {
          "internalType": "bytes32",
          "name": "",
          "type": "bytes32"
        }
      ],
      "stateMutability": "view",
      "type": "function"
    },
    {
      "inputs": [],
      "name": "MINTER_ROLE",
      "outputs": [
        {
          "internalType": "bytes32",
          "name": "",
          "type": "bytes32"
        }
      ],
      "stateMutability": "view",
      "type": "function"
    },
    {
      "inputs": [],
      "name": "UPGRADER_ROLE",
      "outputs": [
        {
          "internalType": "bytes32",
          "name": "",
          "type": "bytes32"
        }
      ],
      "stateMutability": "view",
      "type": "function"
    },
    {
      "inputs": [],
      "name": "USER_ROLE",
      "outputs": [
        {
          "internalType": "bytes32",
          "name": "",
          "type": "bytes32"
        }
      ],
      "stateMutability": "view",
      "type": "function"
    },
    {
      "inputs": [
        {
          "internalType": "address",
          "name": "owner",
          "type": "address"
        },
        {
          "internalType": "address",
          "name": "spender",
          "type": "address"
        }
      ],
      "name": "allowance",
      "outputs": [
        {
          "internalType": "uint256",
          "name": "",
          "type": "uint256"
        }
      ],
      "stateMutability": "view",
      "type": "function"
    },
    {
      "inputs": [
        {
          "internalType": "address",
          "name": "spender",
          "type": "address"
        },
        {
          "internalType": "uint256",
          "name": "amount",
          "type": "uint256"
        }
      ],
      "name": "approve",
      "outputs": [
        {
          "internalType": "bool",
          "name": "",
          "type": "bool"
        }
      ],
      "stateMutability": "nonpayable",
      "type": "function"
    },
    {
      "inputs": [
        {
          "internalType": "address",
          "name": "account",
          "type": "address"
        }
      ],
      "name": "balanceOf",
      "outputs": [
        {
          "internalType": "uint256",
          "name": "",
          "type": "uint256"
        }
      ],
      "stateMutability": "view",
      "type": "function"
    },
    {
      "inputs": [
        {
          "internalType": "uint256",
          "name": "amount",
          "type": "uint256"
        }
      ],
      "name": "burn",
      "outputs": [],
      "stateMutability": "nonpayable",
      "type": "function"
    },
    {
      "inputs": [
        {
          "internalType": "address",
          "name": "account",
          "type": "address"
        },
        {
          "internalType": "uint256",
          "name": "amount",
          "type": "uint256"
        }
      ],
      "name": "burnFrom",
      "outputs": [],
      "stateMutability": "nonpayable",
      "type": "function"
    },
    {
      "inputs": [],
      "name": "count",
      "outputs": [
        {
          "internalType": "uint256",
          "name": "",
          "type": "uint256"
        }
      ],
      "stateMutability": "view",
      "type": "function"
    },
    {
      "inputs": [],
      "name": "decimals",
      "outputs": [
        {
          "internalType": "uint8",
          "name": "",
          "type": "uint8"
        }
      ],
      "stateMutability": "view",
      "type": "function"
    },
    {
      "inputs": [
        {
          "internalType": "address",
          "name": "spender",
          "type": "address"
        },
        {
          "internalType": "uint256",
          "name": "subtractedValue",
          "type": "uint256"
        }
      ],
      "name": "decreaseAllowance",
      "outputs": [
        {
          "internalType": "bool",
          "name": "",
          "type": "bool"
        }
      ],
      "stateMutability": "nonpayable",
      "type": "function"
    },
    {
      "inputs": [
        {
          "internalType": "bytes32",
          "name": "role",
          "type": "bytes32"
        }
      ],
      "name": "getRoleAdmin",
      "outputs": [
        {
          "internalType": "bytes32",
          "name": "",
          "type": "bytes32"
        }
      ],
      "stateMutability": "view",
      "type": "function"
    },
    {
      "inputs": [
        {
          "internalType": "bytes32",
          "name": "role",
          "type": "bytes32"
        },
        {
          "internalType": "address",
          "name": "account",
          "type": "address"
        }
      ],
      "name": "grantRole",
      "outputs": [],
      "stateMutability": "nonpayable",
      "type": "function"
    },
    {
      "inputs": [
        {
          "internalType": "bytes32",
          "name": "role",
          "type": "bytes32"
        },
        {
          "internalType": "address",
          "name": "account",
          "type": "address"
        }
      ],
      "name": "hasRole",
      "outputs": [
        {
          "internalType": "bool",
          "name": "",
          "type": "bool"
        }
      ],
      "stateMutability": "view",
      "type": "function"
    },
    {
      "inputs": [
        {
          "internalType": "address",
          "name": "spender",
          "type": "address"
        },
        {
          "internalType": "uint256",
          "name": "addedValue",
          "type": "uint256"
        }
      ],
      "name": "increaseAllowance",
      "outputs": [
        {
          "internalType": "bool",
          "name": "",
          "type": "bool"
        }
      ],
      "stateMutability": "nonpayable",
      "type": "function"
    },
    {
      "inputs": [],
      "name": "name",
      "outputs": [
        {
          "internalType": "string",
          "name": "",
          "type": "string"
        }
      ],
      "stateMutability": "view",
      "type": "function"
    },
    {
      "inputs": [],
      "name": "proxiableUUID",
      "outputs": [
        {
          "internalType": "bytes32",
          "name": "",
          "type": "bytes32"
        }
      ],
      "stateMutability": "view",
      "type": "function"
    },
    {
      "inputs": [
        {
          "internalType": "bytes32",
          "name": "role",
          "type": "bytes32"
        },
        {
          "internalType": "address",
          "name": "account",
          "type": "address"
        }
      ],
      "name": "renounceRole",
      "outputs": [],
      "stateMutability": "nonpayable",
      "type": "function"
    },
    {
      "inputs": [
        {
          "internalType": "bytes32",
          "name": "role",
          "type": "bytes32"
        },
        {
          "internalType": "address",
          "name": "account",
          "type": "address"
        }
      ],
      "name": "revokeRole",
      "outputs": [],
      "stateMutability": "nonpayable",
      "type": "function"
    },
    {
      "inputs": [],
      "name": "setMessage",
      "outputs": [
        {
          "internalType": "string",
          "name": "",
          "type": "string"
        }
      ],
      "stateMutability": "view",
      "type": "function"
    },
    {
      "inputs": [
        {
          "internalType": "bytes4",
          "name": "interfaceId",
          "type": "bytes4"
        }
      ],
      "name": "supportsInterface",
      "outputs": [
        {
          "internalType": "bool",
          "name": "",
          "type": "bool"
        }
      ],
      "stateMutability": "view",
      "type": "function"
    },
    {
      "inputs": [],
      "name": "symbol",
      "outputs": [
        {
          "internalType": "string",
          "name": "",
          "type": "string"
        }
      ],
      "stateMutability": "view",
      "type": "function"
    },
    {
      "inputs": [],
      "name": "totalSupply",
      "outputs": [
        {
          "internalType": "uint256",
          "name": "",
          "type": "uint256"
        }
      ],
      "stateMutability": "view",
      "type": "function"
    },
    {
      "inputs": [
        {
          "internalType": "address",
          "name": "to",
          "type": "address"
        },
        {
          "internalType": "uint256",
          "name": "amount",
          "type": "uint256"
        }
      ],
      "name": "transfer",
      "outputs": [
        {
          "internalType": "bool",
          "name": "",
          "type": "bool"
        }
      ],
      "stateMutability": "nonpayable",
      "type": "function"
    },
    {
      "inputs": [
        {
          "internalType": "address",
          "name": "from",
          "type": "address"
        },
        {
          "internalType": "address",
          "name": "to",
          "type": "address"
        },
        {
          "internalType": "uint256",
          "name": "amount",
          "type": "uint256"
        }
      ],
      "name": "transferFrom",
      "outputs": [
        {
          "internalType": "bool",
          "name": "",
          "type": "bool"
        }
      ],
      "stateMutability": "nonpayable",
      "type": "function"
    },
    {
      "inputs": [
        {
          "internalType": "address",
          "name": "newImplementation",
          "type": "address"
        }
      ],
      "name": "upgradeTo",
      "outputs": [],
      "stateMutability": "nonpayable",
      "type": "function"
    },
    {
      "inputs": [
        {
          "internalType": "address",
          "name": "newImplementation",
          "type": "address"
        },
        {
          "internalType": "bytes",
          "name": "data",
          "type": "bytes"
        }
      ],
      "name": "upgradeToAndCall",
      "outputs": [],
      "stateMutability": "payable",
      "type": "function"
    },
    {
      "inputs": [],
      "name": "initialize",
      "outputs": [],
      "stateMutability": "nonpayable",
      "type": "function"
    },
    {
      "inputs": [],
      "name": "increment",
      "outputs": [],
      "stateMutability": "nonpayable",
      "type": "function"
    },
    {
      "inputs": [
        {
          "internalType": "string",
          "name": "_setText",
          "type": "string"
        }
      ],
      "name": "setText",
      "outputs": [],
      "stateMutability": "nonpayable",
      "type": "function"
    },
    {
      "inputs": [],
      "name": "getCount",
      "outputs": [
        {
          "internalType": "uint256",
          "name": "",
          "type": "uint256"
        }
      ],
      "stateMutability": "view",
      "type": "function"
    },
    {
      "inputs": [
        {
          "internalType": "address",
          "name": "account",
          "type": "address"
        }
      ],
      "name": "addUserToAdminRole",
      "outputs": [],
      "stateMutability": "nonpayable",
      "type": "function"
    },
    {
      "inputs": [
        {
          "internalType": "address",
          "name": "account",
          "type": "address"
        }
      ],
      "name": "addUserRole",
      "outputs": [],
      "stateMutability": "nonpayable",
      "type": "function"
    },
    {
      "inputs": [
        {
          "internalType": "address",
          "name": "account",
          "type": "address"
        }
      ],
      "name": "isUserRole",
      "outputs": [
        {
          "internalType": "bool",
          "name": "",
          "type": "bool"
        }
      ],
      "stateMutability": "view",
      "type": "function"
    },
    {
      "inputs": [
        {
          "internalType": "address",
          "name": "account",
          "type": "address"
        }
      ],
      "name": "addMinterRole",
      "outputs": [],
      "stateMutability": "nonpayable",
      "type": "function"
    },
    {
      "inputs": [
        {
          "internalType": "address",
          "name": "account",
          "type": "address"
        }
      ],
      "name": "isMinterRole",
      "outputs": [
        {
          "internalType": "bool",
          "name": "",
          "type": "bool"
        }
      ],
      "stateMutability": "view",
      "type": "function"
    },
    {
      "inputs": [
        {
          "internalType": "address",
          "name": "_account",
          "type": "address"
        }
      ],
      "name": "revokeUserRole",
      "outputs": [],
      "stateMutability": "nonpayable",
      "type": "function"
    }
  ],
  "bytecode": "0x60a06040523073ffffffffffffffffffffffffffffffffffffffff1660809073ffffffffffffffffffffffffffffffffffffffff168152503480156200004457600080fd5b50600060019054906101000a900460ff166200006f5760008054906101000a900460ff161562000080565b6200007f6200013c60201b60201c565b5b620000c2576040517f08c379a0000000000000000000000000000000000000000000000000000000008152600401620000b99062000204565b60405180910390fd5b60008060019054906101000a900460ff16159050801562000113576001600060016101000a81548160ff02191690831515021790555060016000806101000a81548160ff0219169083151502179055505b8015620001355760008060016101000a81548160ff0219169083151502179055505b5062000226565b600062000154306200015a60201b620018011760201c565b15905090565b6000808273ffffffffffffffffffffffffffffffffffffffff163b119050919050565b600082825260208201905092915050565b7f496e697469616c697a61626c653a20636f6e747261637420697320616c72656160008201527f647920696e697469616c697a6564000000000000000000000000000000000000602082015250565b6000620001ec602e836200017d565b9150620001f9826200018e565b604082019050919050565b600060208201905081810360008301526200021f81620001dd565b9050919050565b60805161442e6200025e60003960008181610b8101528181610c0f01528181610dfa01528181610e880152610f38015261442e6000f3fe6080604052600436106102255760003560e01c806370a0823111610123578063a9059cbb116100ab578063d547741f1161006f578063d547741f1461081e578063dd62ed3e14610847578063e46962f114610884578063e90847f4146108c1578063f72c0d8b146108ec57610225565b8063a9059cbb1461074d578063adbf37761461078a578063bd73b25d146107b3578063d09de08a146107dc578063d5391393146107f357610225565b806395d89b41116100f257806395d89b41146106665780639dcaf0c814610691578063a217fddf146106ba578063a457c2d7146106e5578063a87d942c1461072257610225565b806370a08231146105ac57806379cc6790146105e95780638129fc1c1461061257806391d148541461062957610225565b8063313ce567116101b157806342966c681161017557806342966c68146104ea5780634f1ef2861461051357806352d1902d1461052f57806356cf15ad1461055a5780635d3a1f9d1461058357610225565b8063313ce567146103f357806336568abe1461041e5780633659cfe61461044757806339509351146104705780634004c7a2146104ad57610225565b806313119161116101f857806313119161146102fa57806318160ddd1461032557806323b872dd14610350578063248a9ca31461038d5780632f2ff15d146103ca57610225565b806301ffc9a71461022a57806306661abd1461026757806306fdde0314610292578063095ea7b3146102bd575b600080fd5b34801561023657600080fd5b50610251600480360381019061024c9190612cca565b610917565b60405161025e9190612d12565b60405180910390f35b34801561027357600080fd5b5061027c610991565b6040516102899190612d46565b60405180910390f35b34801561029e57600080fd5b506102a7610998565b6040516102b49190612dfa565b60405180910390f35b3480156102c957600080fd5b506102e460048036038101906102df9190612ea6565b610a2a565b6040516102f19190612d12565b60405180910390f35b34801561030657600080fd5b5061030f610a4d565b60405161031c9190612eff565b60405180910390f35b34801561033157600080fd5b5061033a610a71565b6040516103479190612d46565b60405180910390f35b34801561035c57600080fd5b5061037760048036038101906103729190612f1a565b610a7b565b6040516103849190612d12565b60405180910390f35b34801561039957600080fd5b506103b460048036038101906103af9190612f99565b610aaa565b6040516103c19190612eff565b60405180910390f35b3480156103d657600080fd5b506103f160048036038101906103ec9190612fc6565b610aca565b005b3480156103ff57600080fd5b50610408610af3565b6040516104159190613022565b60405180910390f35b34801561042a57600080fd5b5061044560048036038101906104409190612fc6565b610afc565b005b34801561045357600080fd5b5061046e6004803603810190610469919061303d565b610b7f565b005b34801561047c57600080fd5b5061049760048036038101906104929190612ea6565b610d07565b6040516104a49190612d12565b60405180910390f35b3480156104b957600080fd5b506104d460048036038101906104cf919061303d565b610db1565b6040516104e19190612d12565b60405180910390f35b3480156104f657600080fd5b50610511600480360381019061050c919061306a565b610de4565b005b61052d600480360381019061052891906131cc565b610df8565b005b34801561053b57600080fd5b50610544610f34565b6040516105519190612eff565b60405180910390f35b34801561056657600080fd5b50610581600480360381019061057c919061303d565b610fed565b005b34801561058f57600080fd5b506105aa60048036038101906105a591906132c9565b611030565b005b3480156105b857600080fd5b506105d360048036038101906105ce919061303d565b61104b565b6040516105e09190612d46565b60405180910390f35b3480156105f557600080fd5b50610610600480360381019061060b9190612ea6565b611094565b005b34801561061e57600080fd5b506106276110b4565b005b34801561063557600080fd5b50610650600480360381019061064b9190612fc6565b61132f565b60405161065d9190612d12565b60405180910390f35b34801561067257600080fd5b5061067b61139a565b6040516106889190612dfa565b60405180910390f35b34801561069d57600080fd5b506106b860048036038101906106b3919061303d565b61142c565b005b3480156106c657600080fd5b506106cf611452565b6040516106dc9190612eff565b60405180910390f35b3480156106f157600080fd5b5061070c60048036038101906107079190612ea6565b611459565b6040516107199190612d12565b60405180910390f35b34801561072e57600080fd5b50610737611543565b6040516107449190612d46565b60405180910390f35b34801561075957600080fd5b50610774600480360381019061076f9190612ea6565b61154e565b6040516107819190612d12565b60405180910390f35b34801561079657600080fd5b506107b160048036038101906107ac919061303d565b611571565b005b3480156107bf57600080fd5b506107da60048036038101906107d5919061303d565b6115b4565b005b3480156107e857600080fd5b506107f16115f7565b005b3480156107ff57600080fd5b50610808611647565b6040516108159190612eff565b60405180910390f35b34801561082a57600080fd5b5061084560048036038101906108409190612fc6565b61166b565b005b34801561085357600080fd5b5061086e60048036038101906108699190613312565b611694565b60405161087b9190612d46565b60405180910390f35b34801561089057600080fd5b506108ab60048036038101906108a6919061303d565b61171b565b6040516108b89190612d12565b60405180910390f35b3480156108cd57600080fd5b506108d661174e565b6040516108e39190612dfa565b60405180910390f35b3480156108f857600080fd5b506109016117dd565b60405161090e9190612eff565b60405180910390f35b60007f7965db0b000000000000000000000000000000000000000000000000000000007bffffffffffffffffffffffffffffffffffffffffffffffffffffffff1916827bffffffffffffffffffffffffffffffffffffffffffffffffffffffff1916148061098a575061098982611824565b5b9050919050565b61015f5481565b6060603680546109a790613381565b80601f01602080910402602001604051908101604052809291908181526020018280546109d390613381565b8015610a205780601f106109f557610100808354040283529160200191610a20565b820191906000526020600020905b815481529060010190602001808311610a0357829003601f168201915b5050505050905090565b600080610a3561188e565b9050610a42818585611896565b600191505092915050565b7f14823911f2da1b49f045a0929a60b8c1f2a7fc8c06c7284ca3e8ab4e193a08c881565b6000603554905090565b600080610a8661188e565b9050610a93858285611a5f565b610a9e858585611aeb565b60019150509392505050565b600060c96000838152602001908152602001600020600101549050919050565b610ad382610aaa565b610ae481610adf61188e565b611d6d565b610aee8383611e0a565b505050565b60006012905090565b610b0461188e565b73ffffffffffffffffffffffffffffffffffffffff168173ffffffffffffffffffffffffffffffffffffffff1614610b71576040517f08c379a0000000000000000000000000000000000000000000000000000000008152600401610b6890613424565b60405180910390fd5b610b7b8282611eeb565b5050565b7f000000000000000000000000000000000000000000000000000000000000000073ffffffffffffffffffffffffffffffffffffffff163073ffffffffffffffffffffffffffffffffffffffff1603610c0d576040517f08c379a0000000000000000000000000000000000000000000000000000000008152600401610c04906134b6565b60405180910390fd5b7f000000000000000000000000000000000000000000000000000000000000000073ffffffffffffffffffffffffffffffffffffffff16610c4c611fcd565b73ffffffffffffffffffffffffffffffffffffffff1614610ca2576040517f08c379a0000000000000000000000000000000000000000000000000000000008152600401610c9990613548565b60405180910390fd5b610cab81612024565b610d0481600067ffffffffffffffff811115610cca57610cc96130a1565b5b6040519080825280601f01601f191660200182016040528015610cfc5781602001600182028036833780820191505090505b50600061205a565b50565b600080610d1261188e565b9050610da6818585603460008673ffffffffffffffffffffffffffffffffffffffff1673ffffffffffffffffffffffffffffffffffffffff16815260200190815260200160002060008973ffffffffffffffffffffffffffffffffffffffff1673ffffffffffffffffffffffffffffffffffffffff16815260200190815260200160002054610da19190613597565b611896565b600191505092915050565b6000610ddd7f9f2df0fed2c77648de5860a4cc508cd0818c85b8b8a1ab4ceeef8d981c8956a68361132f565b9050919050565b610df5610def61188e565b826121c8565b50565b7f000000000000000000000000000000000000000000000000000000000000000073ffffffffffffffffffffffffffffffffffffffff163073ffffffffffffffffffffffffffffffffffffffff1603610e86576040517f08c379a0000000000000000000000000000000000000000000000000000000008152600401610e7d906134b6565b60405180910390fd5b7f000000000000000000000000000000000000000000000000000000000000000073ffffffffffffffffffffffffffffffffffffffff16610ec5611fcd565b73ffffffffffffffffffffffffffffffffffffffff1614610f1b576040517f08c379a0000000000000000000000000000000000000000000000000000000008152600401610f1290613548565b60405180910390fd5b610f2482612024565b610f308282600161205a565b5050565b60007f000000000000000000000000000000000000000000000000000000000000000073ffffffffffffffffffffffffffffffffffffffff163073ffffffffffffffffffffffffffffffffffffffff1614610fc4576040517f08c379a0000000000000000000000000000000000000000000000000000000008152600401610fbb9061365f565b60405180910390fd5b7f360894a13ba1a3210667c828492db98dca3e2076cc3735a920a3ca505d382bbc60001b905090565b6000801b61100281610ffd61188e565b611d6d565b61102c7f14823911f2da1b49f045a0929a60b8c1f2a7fc8c06c7284ca3e8ab4e193a08c883610aca565b5050565b806101609080519060200190611047929190612bbb565b5050565b6000603360008373ffffffffffffffffffffffffffffffffffffffff1673ffffffffffffffffffffffffffffffffffffffff168152602001908152602001600020549050919050565b6110a6826110a061188e565b83611a5f565b6110b082826121c8565b5050565b600060019054906101000a900460ff166110dc5760008054906101000a900460ff16156110e5565b6110e46123a0565b5b611124576040517f08c379a000000000000000000000000000000000000000000000000000000000815260040161111b906136f1565b60405180910390fd5b60008060019054906101000a900460ff161590508015611174576001600060016101000a81548160ff02191690831515021790555060016000806101000a81548160ff0219169083151502179055505b6111e86040518060400160405280600b81526020017f444c54534342546f6b656e0000000000000000000000000000000000000000008152506040518060400160405280600381526020017f53434200000000000000000000000000000000000000000000000000000000008152506123b1565b6111f061240e565b6111f861245f565b6112006124b0565b61122a3361120c610af3565b600a6112189190613844565b6103e8611225919061388f565b612501565b6112376000801b33611e0a565b6112617f9f2df0fed2c77648de5860a4cc508cd0818c85b8b8a1ab4ceeef8d981c8956a633611e0a565b61128b7f189ab7a9244df0848122154315af71fe140f3db0fe014031783b0946b8c9d2e333611e0a565b6112b57f14823911f2da1b49f045a0929a60b8c1f2a7fc8c06c7284ca3e8ab4e193a08c833611e0a565b600061015f819055506040518060400160405280600c81526020017f56312d5265706f7274696e670000000000000000000000000000000000000000815250610160908051906020019061130a929190612bbb565b50801561132c5760008060016101000a81548160ff0219169083151502179055505b50565b600060c9600084815260200190815260200160002060000160008373ffffffffffffffffffffffffffffffffffffffff1673ffffffffffffffffffffffffffffffffffffffff16815260200190815260200160002060009054906101000a900460ff16905092915050565b6060603780546113a990613381565b80601f01602080910402602001604051908101604052809291908181526020018280546113d590613381565b80156114225780601f106113f757610100808354040283529160200191611422565b820191906000526020600020905b81548152906001019060200180831161140557829003601f168201915b5050505050905090565b6000801b6114418161143c61188e565b611d6d565b61144e6000801b83610aca565b5050565b6000801b81565b60008061146461188e565b90506000603460008373ffffffffffffffffffffffffffffffffffffffff1673ffffffffffffffffffffffffffffffffffffffff16815260200190815260200160002060008673ffffffffffffffffffffffffffffffffffffffff1673ffffffffffffffffffffffffffffffffffffffff1681526020019081526020016000205490508381101561152a576040517f08c379a00000000000000000000000000000000000000000000000000000000081526004016115219061395b565b60405180910390fd5b6115378286868403611896565b60019250505092915050565b600061015f54905090565b60008061155961188e565b9050611566818585611aeb565b600191505092915050565b6000801b6115868161158161188e565b611d6d565b6115b07f9f2df0fed2c77648de5860a4cc508cd0818c85b8b8a1ab4ceeef8d981c8956a683610aca565b5050565b6000801b6115c9816115c461188e565b611d6d565b6115f37f14823911f2da1b49f045a0929a60b8c1f2a7fc8c06c7284ca3e8ab4e193a08c883611eeb565b5050565b7f14823911f2da1b49f045a0929a60b8c1f2a7fc8c06c7284ca3e8ab4e193a08c86116298161162461188e565b611d6d565b600161015f600082825461163d9190613597565b9250508190555050565b7f9f2df0fed2c77648de5860a4cc508cd0818c85b8b8a1ab4ceeef8d981c8956a681565b61167482610aaa565b6116858161168061188e565b611d6d565b61168f8383611eeb565b505050565b6000603460008473ffffffffffffffffffffffffffffffffffffffff1673ffffffffffffffffffffffffffffffffffffffff16815260200190815260200160002060008373ffffffffffffffffffffffffffffffffffffffff1673ffffffffffffffffffffffffffffffffffffffff16815260200190815260200160002054905092915050565b60006117477f14823911f2da1b49f045a0929a60b8c1f2a7fc8c06c7284ca3e8ab4e193a08c88361132f565b9050919050565b610160805461175c90613381565b80601f016020809104026020016040519081016040528092919081815260200182805461178890613381565b80156117d55780601f106117aa576101008083540402835291602001916117d5565b820191906000526020600020905b8154815290600101906020018083116117b857829003601f168201915b505050505081565b7f189ab7a9244df0848122154315af71fe140f3db0fe014031783b0946b8c9d2e381565b6000808273ffffffffffffffffffffffffffffffffffffffff163b119050919050565b60007f01ffc9a7000000000000000000000000000000000000000000000000000000007bffffffffffffffffffffffffffffffffffffffffffffffffffffffff1916827bffffffffffffffffffffffffffffffffffffffffffffffffffffffff1916149050919050565b600033905090565b600073ffffffffffffffffffffffffffffffffffffffff168373ffffffffffffffffffffffffffffffffffffffff1603611905576040517f08c379a00000000000000000000000000000000000000000000000000000000081526004016118fc906139ed565b60405180910390fd5b600073ffffffffffffffffffffffffffffffffffffffff168273ffffffffffffffffffffffffffffffffffffffff1603611974576040517f08c379a000000000000000000000000000000000000000000000000000000000815260040161196b90613a7f565b60405180910390fd5b80603460008573ffffffffffffffffffffffffffffffffffffffff1673ffffffffffffffffffffffffffffffffffffffff16815260200190815260200160002060008473ffffffffffffffffffffffffffffffffffffffff1673ffffffffffffffffffffffffffffffffffffffff168152602001908152602001600020819055508173ffffffffffffffffffffffffffffffffffffffff168373ffffffffffffffffffffffffffffffffffffffff167f8c5be1e5ebec7d5bd14f71427d1e84f3dd0314c0f7b2291e5b200ac8c7c3b92583604051611a529190612d46565b60405180910390a3505050565b6000611a6b8484611694565b90507fffffffffffffffffffffffffffffffffffffffffffffffffffffffffffffffff8114611ae55781811015611ad7576040517f08c379a0000000000000000000000000000000000000000000000000000000008152600401611ace90613aeb565b60405180910390fd5b611ae48484848403611896565b5b50505050565b600073ffffffffffffffffffffffffffffffffffffffff168373ffffffffffffffffffffffffffffffffffffffff1603611b5a576040517f08c379a0000000000000000000000000000000000000000000000000000000008152600401611b5190613b7d565b60405180910390fd5b600073ffffffffffffffffffffffffffffffffffffffff168273ffffffffffffffffffffffffffffffffffffffff1603611bc9576040517f08c379a0000000000000000000000000000000000000000000000000000000008152600401611bc090613c0f565b60405180910390fd5b611bd4838383612661565b6000603360008573ffffffffffffffffffffffffffffffffffffffff1673ffffffffffffffffffffffffffffffffffffffff16815260200190815260200160002054905081811015611c5b576040517f08c379a0000000000000000000000000000000000000000000000000000000008152600401611c5290613ca1565b60405180910390fd5b818103603360008673ffffffffffffffffffffffffffffffffffffffff1673ffffffffffffffffffffffffffffffffffffffff1681526020019081526020016000208190555081603360008573ffffffffffffffffffffffffffffffffffffffff1673ffffffffffffffffffffffffffffffffffffffff1681526020019081526020016000206000828254611cf09190613597565b925050819055508273ffffffffffffffffffffffffffffffffffffffff168473ffffffffffffffffffffffffffffffffffffffff167fddf252ad1be2c89b69c2b068fc378daa952ba7f163c4a11628f55a4df523b3ef84604051611d549190612d46565b60405180910390a3611d67848484612666565b50505050565b611d77828261132f565b611e0657611d9c8173ffffffffffffffffffffffffffffffffffffffff16601461266b565b611daa8360001c602061266b565b604051602001611dbb929190613d95565b6040516020818303038152906040526040517f08c379a0000000000000000000000000000000000000000000000000000000008152600401611dfd9190612dfa565b60405180910390fd5b5050565b611e14828261132f565b611ee757600160c9600084815260200190815260200160002060000160008373ffffffffffffffffffffffffffffffffffffffff1673ffffffffffffffffffffffffffffffffffffffff16815260200190815260200160002060006101000a81548160ff021916908315150217905550611e8c61188e565b73ffffffffffffffffffffffffffffffffffffffff168173ffffffffffffffffffffffffffffffffffffffff16837f2f8788117e7eff1d82e926ec794901d17c78024a50270940304540a733656f0d60405160405180910390a45b5050565b611ef5828261132f565b15611fc957600060c9600084815260200190815260200160002060000160008373ffffffffffffffffffffffffffffffffffffffff1673ffffffffffffffffffffffffffffffffffffffff16815260200190815260200160002060006101000a81548160ff021916908315150217905550611f6e61188e565b73ffffffffffffffffffffffffffffffffffffffff168173ffffffffffffffffffffffffffffffffffffffff16837ff6391f5c32d9c69d2a47ea670b442974b53935d1edc7fd64eb21e047a839171b60405160405180910390a45b5050565b6000611ffb7f360894a13ba1a3210667c828492db98dca3e2076cc3735a920a3ca505d382bbc60001b6128a7565b60000160009054906101000a900473ffffffffffffffffffffffffffffffffffffffff16905090565b7f189ab7a9244df0848122154315af71fe140f3db0fe014031783b0946b8c9d2e36120568161205161188e565b611d6d565b5050565b6120867f4910fdfa16fed3260ed0e7147f7cc6da11a60208b5b9406d12a635614ffd914360001b6128b1565b60000160009054906101000a900460ff16156120aa576120a5836128bb565b6121c3565b8273ffffffffffffffffffffffffffffffffffffffff166352d1902d6040518163ffffffff1660e01b8152600401602060405180830381865afa92505050801561211257506040513d601f19601f8201168201806040525081019061210f9190613de4565b60015b612151576040517f08c379a000000000000000000000000000000000000000000000000000000000815260040161214890613e83565b60405180910390fd5b7f360894a13ba1a3210667c828492db98dca3e2076cc3735a920a3ca505d382bbc60001b81146121b6576040517f08c379a00000000000000000000000000000000000000000000000000000000081526004016121ad90613f15565b60405180910390fd5b506121c2838383612974565b5b505050565b600073ffffffffffffffffffffffffffffffffffffffff168273ffffffffffffffffffffffffffffffffffffffff1603612237576040517f08c379a000000000000000000000000000000000000000000000000000000000815260040161222e90613fa7565b60405180910390fd5b61224382600083612661565b6000603360008473ffffffffffffffffffffffffffffffffffffffff1673ffffffffffffffffffffffffffffffffffffffff168152602001908152602001600020549050818110156122ca576040517f08c379a00000000000000000000000000000000000000000000000000000000081526004016122c190614039565b60405180910390fd5b818103603360008573ffffffffffffffffffffffffffffffffffffffff1673ffffffffffffffffffffffffffffffffffffffff1681526020019081526020016000208190555081603560008282546123229190614059565b92505081905550600073ffffffffffffffffffffffffffffffffffffffff168373ffffffffffffffffffffffffffffffffffffffff167fddf252ad1be2c89b69c2b068fc378daa952ba7f163c4a11628f55a4df523b3ef846040516123879190612d46565b60405180910390a361239b83600084612666565b505050565b60006123ab30611801565b15905090565b600060019054906101000a900460ff16612400576040517f08c379a00000000000000000000000000000000000000000000000000000000081526004016123f7906140ff565b60405180910390fd5b61240a82826129a0565b5050565b600060019054906101000a900460ff1661245d576040517f08c379a0000000000000000000000000000000000000000000000000000000008152600401612454906140ff565b60405180910390fd5b565b600060019054906101000a900460ff166124ae576040517f08c379a00000000000000000000000000000000000000000000000000000000081526004016124a5906140ff565b60405180910390fd5b565b600060019054906101000a900460ff166124ff576040517f08c379a00000000000000000000000000000000000000000000000000000000081526004016124f6906140ff565b60405180910390fd5b565b600073ffffffffffffffffffffffffffffffffffffffff168273ffffffffffffffffffffffffffffffffffffffff1603612570576040517f08c379a00000000000000000000000000000000000000000000000000000000081526004016125679061416b565b60405180910390fd5b61257c60008383612661565b806035600082825461258e9190613597565b9250508190555080603360008473ffffffffffffffffffffffffffffffffffffffff1673ffffffffffffffffffffffffffffffffffffffff16815260200190815260200160002060008282546125e49190613597565b925050819055508173ffffffffffffffffffffffffffffffffffffffff16600073ffffffffffffffffffffffffffffffffffffffff167fddf252ad1be2c89b69c2b068fc378daa952ba7f163c4a11628f55a4df523b3ef836040516126499190612d46565b60405180910390a361265d60008383612666565b5050565b505050565b505050565b60606000600283600261267e919061388f565b6126889190613597565b67ffffffffffffffff8111156126a1576126a06130a1565b5b6040519080825280601f01601f1916602001820160405280156126d35781602001600182028036833780820191505090505b5090507f30000000000000000000000000000000000000000000000000000000000000008160008151811061270b5761270a61418b565b5b60200101907effffffffffffffffffffffffffffffffffffffffffffffffffffffffffffff1916908160001a9053507f78000000000000000000000000000000000000000000000000000000000000008160018151811061276f5761276e61418b565b5b60200101907effffffffffffffffffffffffffffffffffffffffffffffffffffffffffffff1916908160001a905350600060018460026127af919061388f565b6127b99190613597565b90505b6001811115612859577f3031323334353637383961626364656600000000000000000000000000000000600f8616601081106127fb576127fa61418b565b5b1a60f81b8282815181106128125761281161418b565b5b60200101907effffffffffffffffffffffffffffffffffffffffffffffffffffffffffffff1916908160001a905350600485901c945080612852906141ba565b90506127bc565b506000841461289d576040517f08c379a00000000000000000000000000000000000000000000000000000000081526004016128949061422f565b60405180910390fd5b8091505092915050565b6000819050919050565b6000819050919050565b6128c481611801565b612903576040517f08c379a00000000000000000000000000000000000000000000000000000000081526004016128fa906142c1565b60405180910390fd5b806129307f360894a13ba1a3210667c828492db98dca3e2076cc3735a920a3ca505d382bbc60001b6128a7565b60000160006101000a81548173ffffffffffffffffffffffffffffffffffffffff021916908373ffffffffffffffffffffffffffffffffffffffff16021790555050565b61297d83612a21565b60008251118061298a5750805b1561299b576129998383612a70565b505b505050565b600060019054906101000a900460ff166129ef576040517f08c379a00000000000000000000000000000000000000000000000000000000081526004016129e6906140ff565b60405180910390fd5b8160369080519060200190612a05929190612bbb565b508060379080519060200190612a1c929190612bbb565b505050565b612a2a816128bb565b8073ffffffffffffffffffffffffffffffffffffffff167fbc7cd75a20ee27fd9adebab32041f755214dbc6bffa90cc0225b39da2e5c2d3b60405160405180910390a250565b6060612a7b83611801565b612aba576040517f08c379a0000000000000000000000000000000000000000000000000000000008152600401612ab190614353565b60405180910390fd5b6000808473ffffffffffffffffffffffffffffffffffffffff1684604051612ae291906143ba565b600060405180830381855af49150503d8060008114612b1d576040519150601f19603f3d011682016040523d82523d6000602084013e612b22565b606091505b5091509150612b4a82826040518060600160405280602781526020016143d260279139612b54565b9250505092915050565b60608315612b6457829050612bb4565b600083511115612b775782518084602001fd5b816040517f08c379a0000000000000000000000000000000000000000000000000000000008152600401612bab9190612dfa565b60405180910390fd5b9392505050565b828054612bc790613381565b90600052602060002090601f016020900481019282612be95760008555612c30565b82601f10612c0257805160ff1916838001178555612c30565b82800160010185558215612c30579182015b82811115612c2f578251825591602001919060010190612c14565b5b509050612c3d9190612c41565b5090565b5b80821115612c5a576000816000905550600101612c42565b5090565b6000604051905090565b600080fd5b600080fd5b60007fffffffff0000000000000000000000000000000000000000000000000000000082169050919050565b612ca781612c72565b8114612cb257600080fd5b50565b600081359050612cc481612c9e565b92915050565b600060208284031215612ce057612cdf612c68565b5b6000612cee84828501612cb5565b91505092915050565b60008115159050919050565b612d0c81612cf7565b82525050565b6000602082019050612d276000830184612d03565b92915050565b6000819050919050565b612d4081612d2d565b82525050565b6000602082019050612d5b6000830184612d37565b92915050565b600081519050919050565b600082825260208201905092915050565b60005b83811015612d9b578082015181840152602081019050612d80565b83811115612daa576000848401525b50505050565b6000601f19601f8301169050919050565b6000612dcc82612d61565b612dd68185612d6c565b9350612de6818560208601612d7d565b612def81612db0565b840191505092915050565b60006020820190508181036000830152612e148184612dc1565b905092915050565b600073ffffffffffffffffffffffffffffffffffffffff82169050919050565b6000612e4782612e1c565b9050919050565b612e5781612e3c565b8114612e6257600080fd5b50565b600081359050612e7481612e4e565b92915050565b612e8381612d2d565b8114612e8e57600080fd5b50565b600081359050612ea081612e7a565b92915050565b60008060408385031215612ebd57612ebc612c68565b5b6000612ecb85828601612e65565b9250506020612edc85828601612e91565b9150509250929050565b6000819050919050565b612ef981612ee6565b82525050565b6000602082019050612f146000830184612ef0565b92915050565b600080600060608486031215612f3357612f32612c68565b5b6000612f4186828701612e65565b9350506020612f5286828701612e65565b9250506040612f6386828701612e91565b9150509250925092565b612f7681612ee6565b8114612f8157600080fd5b50565b600081359050612f9381612f6d565b92915050565b600060208284031215612faf57612fae612c68565b5b6000612fbd84828501612f84565b91505092915050565b60008060408385031215612fdd57612fdc612c68565b5b6000612feb85828601612f84565b9250506020612ffc85828601612e65565b9150509250929050565b600060ff82169050919050565b61301c81613006565b82525050565b60006020820190506130376000830184613013565b92915050565b60006020828403121561305357613052612c68565b5b600061306184828501612e65565b91505092915050565b6000602082840312156130805761307f612c68565b5b600061308e84828501612e91565b91505092915050565b600080fd5b600080fd5b7f4e487b7100000000000000000000000000000000000000000000000000000000600052604160045260246000fd5b6130d982612db0565b810181811067ffffffffffffffff821117156130f8576130f76130a1565b5b80604052505050565b600061310b612c5e565b905061311782826130d0565b919050565b600067ffffffffffffffff821115613137576131366130a1565b5b61314082612db0565b9050602081019050919050565b82818337600083830152505050565b600061316f61316a8461311c565b613101565b90508281526020810184848401111561318b5761318a61309c565b5b61319684828561314d565b509392505050565b600082601f8301126131b3576131b2613097565b5b81356131c384826020860161315c565b91505092915050565b600080604083850312156131e3576131e2612c68565b5b60006131f185828601612e65565b925050602083013567ffffffffffffffff81111561321257613211612c6d565b5b61321e8582860161319e565b9150509250929050565b600067ffffffffffffffff821115613243576132426130a1565b5b61324c82612db0565b9050602081019050919050565b600061326c61326784613228565b613101565b9050828152602081018484840111156132885761328761309c565b5b61329384828561314d565b509392505050565b600082601f8301126132b0576132af613097565b5b81356132c0848260208601613259565b91505092915050565b6000602082840312156132df576132de612c68565b5b600082013567ffffffffffffffff8111156132fd576132fc612c6d565b5b6133098482850161329b565b91505092915050565b6000806040838503121561332957613328612c68565b5b600061333785828601612e65565b925050602061334885828601612e65565b9150509250929050565b7f4e487b7100000000000000000000000000000000000000000000000000000000600052602260045260246000fd5b6000600282049050600182168061339957607f821691505b6020821081036133ac576133ab613352565b5b50919050565b7f416363657373436f6e74726f6c3a2063616e206f6e6c792072656e6f756e636560008201527f20726f6c657320666f722073656c660000000000000000000000000000000000602082015250565b600061340e602f83612d6c565b9150613419826133b2565b604082019050919050565b6000602082019050818103600083015261343d81613401565b9050919050565b7f46756e6374696f6e206d7573742062652063616c6c6564207468726f7567682060008201527f64656c656761746563616c6c0000000000000000000000000000000000000000602082015250565b60006134a0602c83612d6c565b91506134ab82613444565b604082019050919050565b600060208201905081810360008301526134cf81613493565b9050919050565b7f46756e6374696f6e206d7573742062652063616c6c6564207468726f7567682060008201527f6163746976652070726f78790000000000000000000000000000000000000000602082015250565b6000613532602c83612d6c565b915061353d826134d6565b604082019050919050565b6000602082019050818103600083015261356181613525565b9050919050565b7f4e487b7100000000000000000000000000000000000000000000000000000000600052601160045260246000fd5b60006135a282612d2d565b91506135ad83612d2d565b9250827fffffffffffffffffffffffffffffffffffffffffffffffffffffffffffffffff038211156135e2576135e1613568565b5b828201905092915050565b7f555550535570677261646561626c653a206d757374206e6f742062652063616c60008201527f6c6564207468726f7567682064656c656761746563616c6c0000000000000000602082015250565b6000613649603883612d6c565b9150613654826135ed565b604082019050919050565b600060208201905081810360008301526136788161363c565b9050919050565b7f496e697469616c697a61626c653a20636f6e747261637420697320616c72656160008201527f647920696e697469616c697a6564000000000000000000000000000000000000602082015250565b60006136db602e83612d6c565b91506136e68261367f565b604082019050919050565b6000602082019050818103600083015261370a816136ce565b9050919050565b60008160011c9050919050565b6000808291508390505b60018511156137685780860481111561374457613743613568565b5b60018516156137535780820291505b808102905061376185613711565b9450613728565b94509492505050565b600082613781576001905061383d565b8161378f576000905061383d565b81600181146137a557600281146137af576137de565b600191505061383d565b60ff8411156137c1576137c0613568565b5b8360020a9150848211156137d8576137d7613568565b5b5061383d565b5060208310610133831016604e8410600b84101617156138135782820a90508381111561380e5761380d613568565b5b61383d565b613820848484600161371e565b9250905081840481111561383757613836613568565b5b81810290505b9392505050565b600061384f82612d2d565b915061385a83613006565b92506138877fffffffffffffffffffffffffffffffffffffffffffffffffffffffffffffffff8484613771565b905092915050565b600061389a82612d2d565b91506138a583612d2d565b9250817fffffffffffffffffffffffffffffffffffffffffffffffffffffffffffffffff04831182151516156138de576138dd613568565b5b828202905092915050565b7f45524332303a2064656372656173656420616c6c6f77616e63652062656c6f7760008201527f207a65726f000000000000000000000000000000000000000000000000000000602082015250565b6000613945602583612d6c565b9150613950826138e9565b604082019050919050565b6000602082019050818103600083015261397481613938565b9050919050565b7f45524332303a20617070726f76652066726f6d20746865207a65726f2061646460008201527f7265737300000000000000000000000000000000000000000000000000000000602082015250565b60006139d7602483612d6c565b91506139e28261397b565b604082019050919050565b60006020820190508181036000830152613a06816139ca565b9050919050565b7f45524332303a20617070726f766520746f20746865207a65726f20616464726560008201527f7373000000000000000000000000000000000000000000000000000000000000602082015250565b6000613a69602283612d6c565b9150613a7482613a0d565b604082019050919050565b60006020820190508181036000830152613a9881613a5c565b9050919050565b7f45524332303a20696e73756666696369656e7420616c6c6f77616e6365000000600082015250565b6000613ad5601d83612d6c565b9150613ae082613a9f565b602082019050919050565b60006020820190508181036000830152613b0481613ac8565b9050919050565b7f45524332303a207472616e736665722066726f6d20746865207a65726f20616460008201527f6472657373000000000000000000000000000000000000000000000000000000602082015250565b6000613b67602583612d6c565b9150613b7282613b0b565b604082019050919050565b60006020820190508181036000830152613b9681613b5a565b9050919050565b7f45524332303a207472616e7366657220746f20746865207a65726f206164647260008201527f6573730000000000000000000000000000000000000000000000000000000000602082015250565b6000613bf9602383612d6c565b9150613c0482613b9d565b604082019050919050565b60006020820190508181036000830152613c2881613bec565b9050919050565b7f45524332303a207472616e7366657220616d6f756e742065786365656473206260008201527f616c616e63650000000000000000000000000000000000000000000000000000602082015250565b6000613c8b602683612d6c565b9150613c9682613c2f565b604082019050919050565b60006020820190508181036000830152613cba81613c7e565b9050919050565b600081905092915050565b7f416363657373436f6e74726f6c3a206163636f756e7420000000000000000000600082015250565b6000613d02601783613cc1565b9150613d0d82613ccc565b601782019050919050565b6000613d2382612d61565b613d2d8185613cc1565b9350613d3d818560208601612d7d565b80840191505092915050565b7f206973206d697373696e6720726f6c6520000000000000000000000000000000600082015250565b6000613d7f601183613cc1565b9150613d8a82613d49565b601182019050919050565b6000613da082613cf5565b9150613dac8285613d18565b9150613db782613d72565b9150613dc38284613d18565b91508190509392505050565b600081519050613dde81612f6d565b92915050565b600060208284031215613dfa57613df9612c68565b5b6000613e0884828501613dcf565b91505092915050565b7f45524331393637557067726164653a206e657720696d706c656d656e7461746960008201527f6f6e206973206e6f742055555053000000000000000000000000000000000000602082015250565b6000613e6d602e83612d6c565b9150613e7882613e11565b604082019050919050565b60006020820190508181036000830152613e9c81613e60565b9050919050565b7f45524331393637557067726164653a20756e737570706f727465642070726f7860008201527f6961626c65555549440000000000000000000000000000000000000000000000602082015250565b6000613eff602983612d6c565b9150613f0a82613ea3565b604082019050919050565b60006020820190508181036000830152613f2e81613ef2565b9050919050565b7f45524332303a206275726e2066726f6d20746865207a65726f2061646472657360008201527f7300000000000000000000000000000000000000000000000000000000000000602082015250565b6000613f91602183612d6c565b9150613f9c82613f35565b604082019050919050565b60006020820190508181036000830152613fc081613f84565b9050919050565b7f45524332303a206275726e20616d6f756e7420657863656564732062616c616e60008201527f6365000000000000000000000000000000000000000000000000000000000000602082015250565b6000614023602283612d6c565b915061402e82613fc7565b604082019050919050565b6000602082019050818103600083015261405281614016565b9050919050565b600061406482612d2d565b915061406f83612d2d565b92508282101561408257614081613568565b5b828203905092915050565b7f496e697469616c697a61626c653a20636f6e7472616374206973206e6f74206960008201527f6e697469616c697a696e67000000000000000000000000000000000000000000602082015250565b60006140e9602b83612d6c565b91506140f48261408d565b604082019050919050565b60006020820190508181036000830152614118816140dc565b9050919050565b7f45524332303a206d696e7420746f20746865207a65726f206164647265737300600082015250565b6000614155601f83612d6c565b91506141608261411f565b602082019050919050565b6000602082019050818103600083015261418481614148565b9050919050565b7f4e487b7100000000000000000000000000000000000000000000000000000000600052603260045260246000fd5b60006141c582612d2d565b9150600082036141d8576141d7613568565b5b600182039050919050565b7f537472696e67733a20686578206c656e67746820696e73756666696369656e74600082015250565b6000614219602083612d6c565b9150614224826141e3565b602082019050919050565b600060208201905081810360008301526142488161420c565b9050919050565b7f455243313936373a206e657720696d706c656d656e746174696f6e206973206e60008201527f6f74206120636f6e747261637400000000000000000000000000000000000000602082015250565b60006142ab602d83612d6c565b91506142b68261424f565b604082019050919050565b600060208201905081810360008301526142da8161429e565b9050919050565b7f416464726573733a2064656c65676174652063616c6c20746f206e6f6e2d636f60008201527f6e74726163740000000000000000000000000000000000000000000000000000602082015250565b600061433d602683612d6c565b9150614348826142e1565b604082019050919050565b6000602082019050818103600083015261436c81614330565b9050919050565b600081519050919050565b600081905092915050565b600061439482614373565b61439e818561437e565b93506143ae818560208601612d7d565b80840191505092915050565b60006143c68284614389565b91508190509291505056fe416464726573733a206c6f772d6c6576656c2064656c65676174652063616c6c206661696c6564a2646970667358221220385068154f8a86e8e30f5c64cee6f22038826352ead64c44da4c82ad948f0fe264736f6c634300080d0033",
  "immutableReferences": {
    "898": [
      {
        "length": 32,
        "start": 2945
      },
      {
        "length": 32,
        "start": 3087
      },
      {
        "length": 32,
        "start": 3578
      },
      {
        "length": 32,
        "start": 3720
      },
      {
        "length": 32,
        "start": 3896
      }
    ]
  },
  "source": "// SPDX-License-Identifier: MIT\npragma solidity ^0.8.4;\n\nimport \"@openzeppelin/contracts-upgradeable/token/ERC20/ERC20Upgradeable.sol\";\nimport \"@openzeppelin/contracts-upgradeable/token/ERC20/extensions/ERC20BurnableUpgradeable.sol\";\nimport \"@openzeppelin/contracts-upgradeable/access/AccessControlUpgradeable.sol\";\nimport \"@openzeppelin/contracts-upgradeable/proxy/utils/Initializable.sol\";\nimport \"@openzeppelin/contracts-upgradeable/proxy/utils/UUPSUpgradeable.sol\";\n\ncontract DLTSCBTokenV1 is Initializable, ERC20Upgradeable, ERC20BurnableUpgradeable, AccessControlUpgradeable, UUPSUpgradeable {\n    bytes32 public constant MINTER_ROLE = keccak256(\"MINTER_ROLE\");\n    bytes32 public constant UPGRADER_ROLE = keccak256(\"UPGRADER_ROLE\");\n    bytes32 public constant USER_ROLE = keccak256(\"USER_ROLE\");\n    //    bytes32 public constant INTERN_ROLE = keccak256(\"INTERN_ROLE\");\n    uint256 public count;\n    string public setMessage;\n\n    /// @custom:oz-upgrades-unsafe-allow constructor\n    constructor() initializer {}\n\n    function initialize() initializer public {\n        __ERC20_init(\"DLTSCBToken\", \"SCB\");\n        __ERC20Burnable_init();\n        __AccessControl_init();\n        __UUPSUpgradeable_init();\n\n        _mint(msg.sender, 1000 * 10 ** decimals());\n        // _setupRole(DEFAULT_ADMIN_ROLE, msg.sender);\n        // _setRoleAdmin(USER_ROLE, DEFAULT_ADMIN_ROLE);\n        // _setRoleAdmin(INTERN_ROLE, USER_ROLE);\n\n        _grantRole(DEFAULT_ADMIN_ROLE, msg.sender);\n        _grantRole(MINTER_ROLE, msg.sender);\n        _grantRole(UPGRADER_ROLE, msg.sender);\n        _grantRole(USER_ROLE, msg.sender);\n        count = 0;\n        setMessage = \"V1-Reporting\";\n    }\n\n   // Function that increments our counter\n    function increment() public onlyRole(USER_ROLE) {\n        // require(hasRole(USER_ROLE, msg.sender));\n        count += 1;\n    }\n    function setText(string memory _setText) public {\n        setMessage = _setText;\n    }\n  // Not necessary getter to get the count value\n    function getCount() public view returns (uint256) {\n        return count;\n    }\n\n\n    function addUserToAdminRole (address account) public onlyRole(DEFAULT_ADMIN_ROLE) {\n        grantRole(DEFAULT_ADMIN_ROLE, account);\n    }\n\n    function addUserRole (address account) public onlyRole(DEFAULT_ADMIN_ROLE) {\n        grantRole(USER_ROLE, account);\n    }\n\n   function isUserRole(address account) public view returns (bool) {\n        return hasRole(USER_ROLE, account);\n    }\n \n    function addMinterRole (address account) public onlyRole(DEFAULT_ADMIN_ROLE) {\n        grantRole(MINTER_ROLE, account);\n    }\n  \n    function isMinterRole(address account) public view returns (bool) {\n        return hasRole(MINTER_ROLE, account);\n    }\n    function revokeUserRole (address _account) public onlyRole(DEFAULT_ADMIN_ROLE) {\n        _revokeRole(USER_ROLE, _account);\n    }\n\n    function _authorizeUpgrade(address newImplementation)\n        internal\n        onlyRole(UPGRADER_ROLE)\n        override\n    {}\n}",
  "sourcePath": "/Users/pinkyjain/Downloads/BLOCKCHAIN/ethereum-private-blockchain/truffle-uups-accesscontrol/contracts/ERC20CustomUpgradeable/DTLSCBTokenV1.sol",
  "compiler": {
    "name": "solc",
    "version": "0.8.13+commit.abaa5c0e.Emscripten.clang"
  },
  "schemaVersion": "3.4.5",
  "updatedAt": "2022-04-16T05:32:50.960Z",
  "devdoc": {
    "kind": "dev",
    "methods": {
      "allowance(address,address)": {
        "details": "See {IERC20-allowance}."
      },
      "approve(address,uint256)": {
        "details": "See {IERC20-approve}. NOTE: If `amount` is the maximum `uint256`, the allowance is not updated on `transferFrom`. This is semantically equivalent to an infinite approval. Requirements: - `spender` cannot be the zero address."
      },
      "balanceOf(address)": {
        "details": "See {IERC20-balanceOf}."
      },
      "burn(uint256)": {
        "details": "Destroys `amount` tokens from the caller. See {ERC20-_burn}."
      },
      "burnFrom(address,uint256)": {
        "details": "Destroys `amount` tokens from `account`, deducting from the caller's allowance. See {ERC20-_burn} and {ERC20-allowance}. Requirements: - the caller must have allowance for ``accounts``'s tokens of at least `amount`."
      },
      "constructor": {
        "custom:oz-upgrades-unsafe-allow": "constructor"
      },
      "decimals()": {
        "details": "Returns the number of decimals used to get its user representation. For example, if `decimals` equals `2`, a balance of `505` tokens should be displayed to a user as `5.05` (`505 / 10 ** 2`). Tokens usually opt for a value of 18, imitating the relationship between Ether and Wei. This is the value {ERC20} uses, unless this function is overridden; NOTE: This information is only used for _display_ purposes: it in no way affects any of the arithmetic of the contract, including {IERC20-balanceOf} and {IERC20-transfer}."
      },
      "decreaseAllowance(address,uint256)": {
        "details": "Atomically decreases the allowance granted to `spender` by the caller. This is an alternative to {approve} that can be used as a mitigation for problems described in {IERC20-approve}. Emits an {Approval} event indicating the updated allowance. Requirements: - `spender` cannot be the zero address. - `spender` must have allowance for the caller of at least `subtractedValue`."
      },
      "getRoleAdmin(bytes32)": {
        "details": "Returns the admin role that controls `role`. See {grantRole} and {revokeRole}. To change a role's admin, use {_setRoleAdmin}."
      },
      "grantRole(bytes32,address)": {
        "details": "Grants `role` to `account`. If `account` had not been already granted `role`, emits a {RoleGranted} event. Requirements: - the caller must have ``role``'s admin role."
      },
      "hasRole(bytes32,address)": {
        "details": "Returns `true` if `account` has been granted `role`."
      },
      "increaseAllowance(address,uint256)": {
        "details": "Atomically increases the allowance granted to `spender` by the caller. This is an alternative to {approve} that can be used as a mitigation for problems described in {IERC20-approve}. Emits an {Approval} event indicating the updated allowance. Requirements: - `spender` cannot be the zero address."
      },
      "name()": {
        "details": "Returns the name of the token."
      },
      "proxiableUUID()": {
        "details": "Implementation of the ERC1822 {proxiableUUID} function. This returns the storage slot used by the implementation. It is used to validate that the this implementation remains valid after an upgrade. IMPORTANT: A proxy pointing at a proxiable contract should not be considered proxiable itself, because this risks bricking a proxy that upgrades to it, by delegating to itself until out of gas. Thus it is critical that this function revert if invoked through a proxy. This is guaranteed by the `notDelegated` modifier."
      },
      "renounceRole(bytes32,address)": {
        "details": "Revokes `role` from the calling account. Roles are often managed via {grantRole} and {revokeRole}: this function's purpose is to provide a mechanism for accounts to lose their privileges if they are compromised (such as when a trusted device is misplaced). If the calling account had been revoked `role`, emits a {RoleRevoked} event. Requirements: - the caller must be `account`."
      },
      "revokeRole(bytes32,address)": {
        "details": "Revokes `role` from `account`. If `account` had been granted `role`, emits a {RoleRevoked} event. Requirements: - the caller must have ``role``'s admin role."
      },
      "supportsInterface(bytes4)": {
        "details": "See {IERC165-supportsInterface}."
      },
      "symbol()": {
        "details": "Returns the symbol of the token, usually a shorter version of the name."
      },
      "totalSupply()": {
        "details": "See {IERC20-totalSupply}."
      },
      "transfer(address,uint256)": {
        "details": "See {IERC20-transfer}. Requirements: - `to` cannot be the zero address. - the caller must have a balance of at least `amount`."
      },
      "transferFrom(address,address,uint256)": {
        "details": "See {IERC20-transferFrom}. Emits an {Approval} event indicating the updated allowance. This is not required by the EIP. See the note at the beginning of {ERC20}. NOTE: Does not update the allowance if the current allowance is the maximum `uint256`. Requirements: - `from` and `to` cannot be the zero address. - `from` must have a balance of at least `amount`. - the caller must have allowance for ``from``'s tokens of at least `amount`."
      },
      "upgradeTo(address)": {
        "details": "Upgrade the implementation of the proxy to `newImplementation`. Calls {_authorizeUpgrade}. Emits an {Upgraded} event."
      },
      "upgradeToAndCall(address,bytes)": {
        "details": "Upgrade the implementation of the proxy to `newImplementation`, and subsequently execute the function call encoded in `data`. Calls {_authorizeUpgrade}. Emits an {Upgraded} event."
      }
    },
    "version": 1
  },
  "userdoc": {
    "kind": "user",
    "methods": {},
    "version": 1
  }
}